{
  "contractName": "CryptoZombies",
  "abi": [
    {
      "inputs": [
        {
          "internalType": "address",
          "name": "owner",
          "type": "address"
        }
      ],
      "name": "OwnableInvalidOwner",
      "type": "error"
    },
    {
      "inputs": [
        {
          "internalType": "address",
          "name": "account",
          "type": "address"
        }
      ],
      "name": "OwnableUnauthorizedAccount",
      "type": "error"
    },
    {
      "anonymous": false,
      "inputs": [
        {
          "indexed": true,
          "internalType": "address",
          "name": "owner",
          "type": "address"
        },
        {
          "indexed": true,
          "internalType": "address",
          "name": "approved",
          "type": "address"
        },
        {
          "indexed": true,
          "internalType": "uint256",
          "name": "tokenId",
          "type": "uint256"
        }
      ],
      "name": "Approval",
      "type": "event"
    },
    {
      "anonymous": false,
      "inputs": [
        {
          "indexed": true,
          "internalType": "uint256",
          "name": "zombieId",
          "type": "uint256"
        },
        {
          "indexed": false,
          "internalType": "string",
          "name": "name",
          "type": "string"
        },
        {
          "indexed": true,
          "internalType": "uint256",
          "name": "dna",
          "type": "uint256"
        }
      ],
      "name": "NewZombie",
      "type": "event"
    },
    {
      "anonymous": false,
      "inputs": [
        {
          "indexed": true,
          "internalType": "address",
          "name": "previousOwner",
          "type": "address"
        },
        {
          "indexed": true,
          "internalType": "address",
          "name": "newOwner",
          "type": "address"
        }
      ],
      "name": "OwnershipTransferred",
      "type": "event"
    },
    {
      "anonymous": false,
      "inputs": [
        {
          "indexed": true,
          "internalType": "address",
          "name": "from",
          "type": "address"
        },
        {
          "indexed": true,
          "internalType": "address",
          "name": "to",
          "type": "address"
        },
        {
          "indexed": true,
          "internalType": "uint256",
          "name": "tokenId",
          "type": "uint256"
        }
      ],
      "name": "Transfer",
      "type": "event"
    },
    {
      "inputs": [
        {
          "internalType": "address",
          "name": "_to",
          "type": "address"
        },
        {
          "internalType": "uint256",
          "name": "_tokenId",
          "type": "uint256"
        }
      ],
      "name": "approve",
      "outputs": [],
      "stateMutability": "nonpayable",
      "type": "function"
    },
    {
      "inputs": [
        {
          "internalType": "uint256",
          "name": "_zombieId",
          "type": "uint256"
        },
        {
          "internalType": "uint256",
          "name": "_targetId",
          "type": "uint256"
        }
      ],
      "name": "attack",
      "outputs": [],
      "stateMutability": "nonpayable",
      "type": "function"
    },
    {
      "inputs": [
        {
          "internalType": "address",
          "name": "_owner",
          "type": "address"
        }
      ],
      "name": "balanceOf",
      "outputs": [
        {
          "internalType": "uint256",
          "name": "_balance",
          "type": "uint256"
        }
      ],
      "stateMutability": "view",
      "type": "function",
      "constant": true
    },
    {
      "inputs": [
        {
          "internalType": "uint256",
          "name": "_zombieId",
          "type": "uint256"
        },
        {
          "internalType": "uint256",
          "name": "_newDna",
          "type": "uint256"
        }
      ],
      "name": "changeDna",
      "outputs": [],
      "stateMutability": "nonpayable",
      "type": "function"
    },
    {
      "inputs": [
        {
          "internalType": "uint256",
          "name": "_zombieId",
          "type": "uint256"
        },
        {
          "internalType": "string",
          "name": "_newName",
          "type": "string"
        }
      ],
      "name": "changeName",
      "outputs": [],
      "stateMutability": "nonpayable",
      "type": "function"
    },
    {
      "inputs": [
        {
          "internalType": "string",
          "name": "_name",
          "type": "string"
        }
      ],
      "name": "createRandomZombie",
      "outputs": [],
      "stateMutability": "nonpayable",
      "type": "function"
    },
    {
      "inputs": [
        {
          "internalType": "uint256",
          "name": "_zombieId",
          "type": "uint256"
        },
        {
          "internalType": "uint256",
          "name": "_kittyId",
          "type": "uint256"
        }
      ],
      "name": "feedOnKitty",
      "outputs": [],
      "stateMutability": "nonpayable",
      "type": "function"
    },
    {
      "inputs": [
        {
          "internalType": "address",
          "name": "_owner",
          "type": "address"
        }
      ],
      "name": "getZombiesByOwner",
      "outputs": [
        {
          "internalType": "uint256[]",
          "name": "",
          "type": "uint256[]"
        }
      ],
      "stateMutability": "view",
      "type": "function",
      "constant": true
    },
    {
      "inputs": [
        {
          "internalType": "uint256",
          "name": "_zombieId",
          "type": "uint256"
        }
      ],
      "name": "levelUp",
      "outputs": [],
      "stateMutability": "payable",
      "type": "function",
      "payable": true
    },
    {
      "inputs": [],
      "name": "owner",
      "outputs": [
        {
          "internalType": "address",
          "name": "",
          "type": "address"
        }
      ],
      "stateMutability": "view",
      "type": "function",
      "constant": true
    },
    {
      "inputs": [
        {
          "internalType": "uint256",
          "name": "_tokenId",
          "type": "uint256"
        }
      ],
      "name": "ownerOf",
      "outputs": [
        {
          "internalType": "address",
          "name": "_owner",
          "type": "address"
        }
      ],
      "stateMutability": "view",
      "type": "function",
      "constant": true
    },
    {
      "inputs": [],
      "name": "renounceOwnership",
      "outputs": [],
      "stateMutability": "nonpayable",
      "type": "function"
    },
    {
      "inputs": [
        {
          "internalType": "address",
          "name": "_address",
          "type": "address"
        }
      ],
      "name": "setKittyContractAddress",
      "outputs": [],
      "stateMutability": "nonpayable",
      "type": "function"
    },
    {
      "inputs": [
        {
          "internalType": "uint256",
          "name": "_fee",
          "type": "uint256"
        }
      ],
      "name": "setLevelUpFee",
      "outputs": [],
      "stateMutability": "nonpayable",
      "type": "function"
    },
    {
      "inputs": [
        {
          "internalType": "uint256",
          "name": "_tokenId",
          "type": "uint256"
        }
      ],
      "name": "takeOwnership",
      "outputs": [],
      "stateMutability": "nonpayable",
      "type": "function"
    },
    {
      "inputs": [
        {
          "internalType": "address",
          "name": "_to",
          "type": "address"
        },
        {
          "internalType": "uint256",
          "name": "_tokenId",
          "type": "uint256"
        }
      ],
      "name": "transfer",
      "outputs": [],
      "stateMutability": "nonpayable",
      "type": "function"
    },
    {
      "inputs": [
        {
          "internalType": "address",
          "name": "newOwner",
          "type": "address"
        }
      ],
      "name": "transferOwnership",
      "outputs": [],
      "stateMutability": "nonpayable",
      "type": "function"
    },
    {
      "inputs": [],
      "name": "withdraw",
      "outputs": [],
      "stateMutability": "nonpayable",
      "type": "function"
    },
    {
      "inputs": [
        {
          "internalType": "uint256",
          "name": "",
          "type": "uint256"
        }
      ],
      "name": "zombieToOwner",
      "outputs": [
        {
          "internalType": "address",
          "name": "",
          "type": "address"
        }
      ],
      "stateMutability": "view",
      "type": "function",
      "constant": true
    },
    {
      "inputs": [
        {
          "internalType": "uint256",
          "name": "",
          "type": "uint256"
        }
      ],
      "name": "zombies",
      "outputs": [
        {
          "internalType": "string",
          "name": "name",
          "type": "string"
        },
        {
          "internalType": "uint256",
          "name": "dna",
          "type": "uint256"
        },
        {
          "internalType": "uint32",
          "name": "level",
          "type": "uint32"
        },
        {
          "internalType": "uint32",
          "name": "readyTime",
          "type": "uint32"
        },
        {
          "internalType": "uint16",
          "name": "winCount",
          "type": "uint16"
        },
        {
          "internalType": "uint16",
          "name": "lossCount",
          "type": "uint16"
        }
      ],
      "stateMutability": "view",
      "type": "function",
      "constant": true
    },
    {
      "inputs": [],
      "name": "kill",
      "outputs": [],
      "stateMutability": "nonpayable",
      "type": "function"
    }
  ],
  "bytecode": "0x60806040526010600155600154600a6200001a919062000318565b6002556201518060035566038d7ea4c680006008555f6009556046600a5534801562000044575f80fd5b50335f73ffffffffffffffffffffffffffffffffffffffff168173ffffffffffffffffffffffffffffffffffffffff1603620000b9575f6040517f1e4fbdf7000000000000000000000000000000000000000000000000000000008152600401620000b09190620003ab565b60405180910390fd5b620000ca81620000d160201b60201c565b50620003c6565b5f805f9054906101000a900473ffffffffffffffffffffffffffffffffffffffff169050815f806101000a81548173ffffffffffffffffffffffffffffffffffffffff021916908373ffffffffffffffffffffffffffffffffffffffff1602179055508173ffffffffffffffffffffffffffffffffffffffff168173ffffffffffffffffffffffffffffffffffffffff167f8be0079c531659141344cd1fd0a4f28419497f9722a3daafe3b4186f6b6457e060405160405180910390a35050565b7f4e487b71000000000000000000000000000000000000000000000000000000005f52601160045260245ffd5b5f8160011c9050919050565b5f808291508390505b60018511156200021c57808604811115620001f457620001f362000192565b5b6001851615620002045780820291505b80810290506200021485620001bf565b9450620001d4565b94509492505050565b5f8262000236576001905062000308565b8162000245575f905062000308565b81600181146200025e576002811462000269576200029f565b600191505062000308565b60ff8411156200027e576200027d62000192565b5b8360020a91508482111562000298576200029762000192565b5b5062000308565b5060208310610133831016604e8410600b8410161715620002d95782820a905083811115620002d357620002d262000192565b5b62000308565b620002e88484846001620001cb565b9250905081840481111562000302576200030162000192565b5b81810290505b9392505050565b5f819050919050565b5f62000324826200030f565b915062000331836200030f565b9250620003607fffffffffffffffffffffffffffffffffffffffffffffffffffffffffffffffff848462000225565b905092915050565b5f73ffffffffffffffffffffffffffffffffffffffff82169050919050565b5f620003938262000368565b9050919050565b620003a58162000387565b82525050565b5f602082019050620003c05f8301846200039a565b92915050565b61265f80620003d45f395ff3fe608060405260043610610129575f3560e01c80636352211e116100aa578063a9059cbb1161006e578063a9059cbb146103ae578063b2e6ceeb146103d6578063c39cbef1146103fe578063ccf670f814610426578063e1fa76381461044e578063f2fde38b1461047657610129565b80636352211e146102ce57806370a082311461030a578063715018a6146103465780637bff0a011461035c5780638da5cb5b1461038457610129565b806341c0e1b5116100f157806341c0e1b5146101f05780634412e10414610206578063528b7b8f146102425780635f4623f11461027e5780635faf2880146102a657610129565b8063095ea7b31461012d5780630ce90ec21461015557806317a7f4cc146101715780632052465e146101995780633ccfd60b146101da575b5f80fd5b348015610138575f80fd5b50610153600480360381019061014e9190611988565b61049e565b005b61016f600480360381019061016a91906119c6565b6105b5565b005b34801561017c575f80fd5b50610197600480360381019061019291906119f1565b610626565b005b3480156101a4575f80fd5b506101bf60048036038101906101ba91906119c6565b610740565b6040516101d196959493929190611b02565b60405180910390f35b3480156101e5575f80fd5b506101ee610848565b005b3480156101fb575f80fd5b506102046108b9565b005b348015610211575f80fd5b5061022c60048036038101906102279190611b68565b6108e1565b6040516102399190611c4a565b60405180910390f35b34801561024d575f80fd5b50610268600480360381019061026391906119c6565b610a2c565b6040516102759190611c79565b60405180910390f35b348015610289575f80fd5b506102a4600480360381019061029f9190611b68565b610a5c565b005b3480156102b1575f80fd5b506102cc60048036038101906102c791906119f1565b610aa7565b005b3480156102d9575f80fd5b506102f460048036038101906102ef91906119c6565b610b85565b6040516103019190611c79565b60405180910390f35b348015610315575f80fd5b50610330600480360381019061032b9190611b68565b610bbe565b60405161033d9190611c92565b60405180910390f35b348015610351575f80fd5b5061035a610c04565b005b348015610367575f80fd5b50610382600480360381019061037d9190611dd7565b610c17565b005b34801561038f575f80fd5b50610398610cb0565b6040516103a59190611c79565b60405180910390f35b3480156103b9575f80fd5b506103d460048036038101906103cf9190611988565b610cd7565b005b3480156103e1575f80fd5b506103fc60048036038101906103f791906119c6565b610d4f565b005b348015610409575f80fd5b50610424600480360381019061041f9190611e1e565b610dd1565b005b348015610431575f80fd5b5061044c600480360381019061044791906119c6565b610eb7565b005b348015610459575f80fd5b50610474600480360381019061046f91906119f1565b610ec9565b005b348015610481575f80fd5b5061049c60048036038101906104979190611b68565b61111e565b005b8060055f8281526020019081526020015f205f9054906101000a900473ffffffffffffffffffffffffffffffffffffffff1673ffffffffffffffffffffffffffffffffffffffff163373ffffffffffffffffffffffffffffffffffffffff1614610506575f80fd5b82600b5f8481526020019081526020015f205f6101000a81548173ffffffffffffffffffffffffffffffffffffffff021916908373ffffffffffffffffffffffffffffffffffffffff160217905550818373ffffffffffffffffffffffffffffffffffffffff163373ffffffffffffffffffffffffffffffffffffffff167f8c5be1e5ebec7d5bd14f71427d1e84f3dd0314c0f7b2291e5b200ac8c7c3b92560405160405180910390a4505050565b60085434146105c2575f80fd5b600481815481106105d6576105d5611e78565b5b905f5260205f2090600302016002015f81819054906101000a900463ffffffff168092919061060490611ed2565b91906101000a81548163ffffffff021916908363ffffffff1602179055505050565b5f60075f9054906101000a900473ffffffffffffffffffffffffffffffffffffffff1673ffffffffffffffffffffffffffffffffffffffff1663e98b7f4d836040518263ffffffff1660e01b81526004016106819190611c92565b61014060405180830381865afa15801561069d573d5f803e3d5ffd5b505050506040513d601f19601f820116820180604052508101906106c19190611f46565b9091929394959697985090919293949596975090919293949596509091929394955090919293945090919293509091925090915090508091505061073b83826040518060400160405280600581526020017f6b697474790000000000000000000000000000000000000000000000000000008152506111a2565b505050565b6004818154811061074f575f80fd5b905f5260205f2090600302015f91509050805f01805461076e9061204c565b80601f016020809104026020016040519081016040528092919081815260200182805461079a9061204c565b80156107e55780601f106107bc576101008083540402835291602001916107e5565b820191905f5260205f20905b8154815290600101906020018083116107c857829003601f168201915b505050505090806001015490806002015f9054906101000a900463ffffffff16908060020160049054906101000a900463ffffffff16908060020160089054906101000a900461ffff169080600201600a9054906101000a900461ffff16905086565b610850611335565b5f610859610cb0565b90508073ffffffffffffffffffffffffffffffffffffffff166108fc8273ffffffffffffffffffffffffffffffffffffffff163190811502906040515f60405180830381858888f193505050501580156108b5573d5f803e3d5ffd5b5050565b6108c1611335565b6108c9610cb0565b73ffffffffffffffffffffffffffffffffffffffff16ff5b60605f60065f8473ffffffffffffffffffffffffffffffffffffffff1673ffffffffffffffffffffffffffffffffffffffff1681526020019081526020015f205467ffffffffffffffff81111561093b5761093a611cb3565b5b6040519080825280602002602001820160405280156109695781602001602082028036833780820191505090505b5090505f805b600480549050811015610a21578473ffffffffffffffffffffffffffffffffffffffff1660055f8381526020019081526020015f205f9054906101000a900473ffffffffffffffffffffffffffffffffffffffff1673ffffffffffffffffffffffffffffffffffffffff1603610a0e57808383815181106109f3576109f2611e78565b5b6020026020010181815250508180610a0a9061207c565b9250505b8080610a199061207c565b91505061096f565b508192505050919050565b6005602052805f5260405f205f915054906101000a900473ffffffffffffffffffffffffffffffffffffffff1681565b610a64611335565b8060075f6101000a81548173ffffffffffffffffffffffffffffffffffffffff021916908373ffffffffffffffffffffffffffffffffffffffff16021790555050565b6014828160048281548110610abf57610abe611e78565b5b905f5260205f2090600302016002015f9054906101000a900463ffffffff1663ffffffff161015610aee575f80fd5b8360055f8281526020019081526020015f205f9054906101000a900473ffffffffffffffffffffffffffffffffffffffff1673ffffffffffffffffffffffffffffffffffffffff163373ffffffffffffffffffffffffffffffffffffffff1614610b56575f80fd5b8360048681548110610b6b57610b6a611e78565b5b905f5260205f209060030201600101819055505050505050565b5f60055f8381526020019081526020015f205f9054906101000a900473ffffffffffffffffffffffffffffffffffffffff169050919050565b5f60065f8373ffffffffffffffffffffffffffffffffffffffff1673ffffffffffffffffffffffffffffffffffffffff1681526020019081526020015f20549050919050565b610c0c611335565b610c155f6113bc565b565b5f60065f3373ffffffffffffffffffffffffffffffffffffffff1673ffffffffffffffffffffffffffffffffffffffff1681526020019081526020015f205414610c96576040517f08c379a0000000000000000000000000000000000000000000000000000000008152600401610c8d90612133565b60405180910390fd5b5f610ca08261147d565b9050610cac82826114c0565b5050565b5f805f9054906101000a900473ffffffffffffffffffffffffffffffffffffffff16905090565b8060055f8281526020019081526020015f205f9054906101000a900473ffffffffffffffffffffffffffffffffffffffff1673ffffffffffffffffffffffffffffffffffffffff163373ffffffffffffffffffffffffffffffffffffffff1614610d3f575f80fd5b610d4a3384846116de565b505050565b3373ffffffffffffffffffffffffffffffffffffffff16600b5f8381526020019081526020015f205f9054906101000a900473ffffffffffffffffffffffffffffffffffffffff1673ffffffffffffffffffffffffffffffffffffffff1614610db6575f80fd5b5f610dc082610b85565b9050610dcd8133846116de565b5050565b6002828160048281548110610de957610de8611e78565b5b905f5260205f2090600302016002015f9054906101000a900463ffffffff1663ffffffff161015610e18575f80fd5b8360055f8281526020019081526020015f205f9054906101000a900473ffffffffffffffffffffffffffffffffffffffff1673ffffffffffffffffffffffffffffffffffffffff163373ffffffffffffffffffffffffffffffffffffffff1614610e80575f80fd5b8360048681548110610e9557610e94611e78565b5b905f5260205f2090600302015f019081610eaf91906122ee565b505050505050565b610ebf611335565b8060088190555050565b8160055f8281526020019081526020015f205f9054906101000a900473ffffffffffffffffffffffffffffffffffffffff1673ffffffffffffffffffffffffffffffffffffffff163373ffffffffffffffffffffffffffffffffffffffff1614610f31575f80fd5b5f60048481548110610f4657610f45611e78565b5b905f5260205f20906003020190505f60048481548110610f6957610f68611e78565b5b905f5260205f20906003020190505f610f826064611831565b9050600a5481116110925782600201600881819054906101000a900461ffff1680929190610faf906123bd565b91906101000a81548161ffff021916908361ffff16021790555050826002015f81819054906101000a900463ffffffff1680929190610fed90611ed2565b91906101000a81548163ffffffff021916908363ffffffff1602179055505081600201600a81819054906101000a900461ffff168092919061102e906123bd565b91906101000a81548161ffff021916908361ffff1602179055505061108d8683600101546040518060400160405280600681526020017f7a6f6d62696500000000000000000000000000000000000000000000000000008152506111a2565b611116565b82600201600a81819054906101000a900461ffff16809291906110b4906123bd565b91906101000a81548161ffff021916908361ffff1602179055505081600201600881819054906101000a900461ffff16809291906110f1906123bd565b91906101000a81548161ffff021916908361ffff160217905550506111158361188a565b5b505050505050565b611126611335565b5f73ffffffffffffffffffffffffffffffffffffffff168173ffffffffffffffffffffffffffffffffffffffff1603611196575f6040517f1e4fbdf700000000000000000000000000000000000000000000000000000000815260040161118d9190611c79565b60405180910390fd5b61119f816113bc565b50565b8260055f8281526020019081526020015f205f9054906101000a900473ffffffffffffffffffffffffffffffffffffffff1673ffffffffffffffffffffffffffffffffffffffff163373ffffffffffffffffffffffffffffffffffffffff161461120a575f80fd5b5f6004858154811061121f5761121e611e78565b5b905f5260205f2090600302019050611236816118bd565b61123e575f80fd5b6002548461124c9190612413565b93505f60028583600101546112619190612443565b61126b9190612476565b905060405160200161127c906124f0565b60405160208183030381529060405280519060200120846040516020016112a3919061250e565b60405160208183030381529060405280519060200120036112e55760636064826112cd9190612413565b826112d8919061252e565b6112e29190612443565b90505b6113246040518060400160405280600681526020017f4e6f4e616d650000000000000000000000000000000000000000000000000000815250826114c0565b61132d8261188a565b505050505050565b61133d6118e3565b73ffffffffffffffffffffffffffffffffffffffff1661135b610cb0565b73ffffffffffffffffffffffffffffffffffffffff16146113ba5761137e6118e3565b6040517f118cdaa70000000000000000000000000000000000000000000000000000000081526004016113b19190611c79565b60405180910390fd5b565b5f805f9054906101000a900473ffffffffffffffffffffffffffffffffffffffff169050815f806101000a81548173ffffffffffffffffffffffffffffffffffffffff021916908373ffffffffffffffffffffffffffffffffffffffff1602179055508173ffffffffffffffffffffffffffffffffffffffff168173ffffffffffffffffffffffffffffffffffffffff167f8be0079c531659141344cd1fd0a4f28419497f9722a3daafe3b4186f6b6457e060405160405180910390a35050565b5f8082604051602001611490919061250e565b604051602081830303815290604052805190602001205f1c9050600254816114b89190612413565b915050919050565b60046040518060c00160405280848152602001838152602001600163ffffffff168152602001600354426114f49190612443565b63ffffffff1681526020015f61ffff1681526020015f61ffff16815250908060018154018082558091505060019003905f5260205f2090600302015f909190919091505f820151815f01908161154a91906122ee565b50602082015181600101556040820151816002015f6101000a81548163ffffffff021916908363ffffffff16021790555060608201518160020160046101000a81548163ffffffff021916908363ffffffff16021790555060808201518160020160086101000a81548161ffff021916908361ffff16021790555060a082015181600201600a6101000a81548161ffff021916908361ffff16021790555050505f60016004805490506115fd919061252e565b90503360055f8381526020019081526020015f205f6101000a81548173ffffffffffffffffffffffffffffffffffffffff021916908373ffffffffffffffffffffffffffffffffffffffff16021790555060065f3373ffffffffffffffffffffffffffffffffffffffff1673ffffffffffffffffffffffffffffffffffffffff1681526020019081526020015f205f81548092919061169b9061207c565b919050555081817f88f026aacbbecc90c18411df4b1185fd8d9be2470f1962f192bf84a27d0704b7856040516116d1919061250e565b60405180910390a3505050565b60065f8373ffffffffffffffffffffffffffffffffffffffff1673ffffffffffffffffffffffffffffffffffffffff1681526020019081526020015f205f81548092919061172b9061207c565b919050555060065f8473ffffffffffffffffffffffffffffffffffffffff1673ffffffffffffffffffffffffffffffffffffffff1681526020019081526020015f205f81548092919061177d90612561565b91905055508160055f8381526020019081526020015f205f6101000a81548173ffffffffffffffffffffffffffffffffffffffff021916908373ffffffffffffffffffffffffffffffffffffffff160217905550808273ffffffffffffffffffffffffffffffffffffffff168473ffffffffffffffffffffffffffffffffffffffff167fddf252ad1be2c89b69c2b068fc378daa952ba7f163c4a11628f55a4df523b3ef60405160405180910390a4505050565b5f60095f8154809291906118449061207c565b9190505550814233600954604051602001611861939291906125ed565b604051602081830303815290604052805190602001205f1c6118839190612413565b9050919050565b600354426118989190612443565b8160020160046101000a81548163ffffffff021916908363ffffffff16021790555050565b5f428260020160049054906101000a900463ffffffff1663ffffffff1611159050919050565b5f33905090565b5f604051905090565b5f80fd5b5f80fd5b5f73ffffffffffffffffffffffffffffffffffffffff82169050919050565b5f611924826118fb565b9050919050565b6119348161191a565b811461193e575f80fd5b50565b5f8135905061194f8161192b565b92915050565b5f819050919050565b61196781611955565b8114611971575f80fd5b50565b5f813590506119828161195e565b92915050565b5f806040838503121561199e5761199d6118f3565b5b5f6119ab85828601611941565b92505060206119bc85828601611974565b9150509250929050565b5f602082840312156119db576119da6118f3565b5b5f6119e884828501611974565b91505092915050565b5f8060408385031215611a0757611a066118f3565b5b5f611a1485828601611974565b9250506020611a2585828601611974565b9150509250929050565b5f81519050919050565b5f82825260208201905092915050565b5f5b83811015611a66578082015181840152602081019050611a4b565b5f8484015250505050565b5f601f19601f8301169050919050565b5f611a8b82611a2f565b611a958185611a39565b9350611aa5818560208601611a49565b611aae81611a71565b840191505092915050565b611ac281611955565b82525050565b5f63ffffffff82169050919050565b611ae081611ac8565b82525050565b5f61ffff82169050919050565b611afc81611ae6565b82525050565b5f60c0820190508181035f830152611b1a8189611a81565b9050611b296020830188611ab9565b611b366040830187611ad7565b611b436060830186611ad7565b611b506080830185611af3565b611b5d60a0830184611af3565b979650505050505050565b5f60208284031215611b7d57611b7c6118f3565b5b5f611b8a84828501611941565b91505092915050565b5f81519050919050565b5f82825260208201905092915050565b5f819050602082019050919050565b611bc581611955565b82525050565b5f611bd68383611bbc565b60208301905092915050565b5f602082019050919050565b5f611bf882611b93565b611c028185611b9d565b9350611c0d83611bad565b805f5b83811015611c3d578151611c248882611bcb565b9750611c2f83611be2565b925050600181019050611c10565b5085935050505092915050565b5f6020820190508181035f830152611c628184611bee565b905092915050565b611c738161191a565b82525050565b5f602082019050611c8c5f830184611c6a565b92915050565b5f602082019050611ca55f830184611ab9565b92915050565b5f80fd5b5f80fd5b7f4e487b71000000000000000000000000000000000000000000000000000000005f52604160045260245ffd5b611ce982611a71565b810181811067ffffffffffffffff82111715611d0857611d07611cb3565b5b80604052505050565b5f611d1a6118ea565b9050611d268282611ce0565b919050565b5f67ffffffffffffffff821115611d4557611d44611cb3565b5b611d4e82611a71565b9050602081019050919050565b828183375f83830152505050565b5f611d7b611d7684611d2b565b611d11565b905082815260208101848484011115611d9757611d96611caf565b5b611da2848285611d5b565b509392505050565b5f82601f830112611dbe57611dbd611cab565b5b8135611dce848260208601611d69565b91505092915050565b5f60208284031215611dec57611deb6118f3565b5b5f82013567ffffffffffffffff811115611e0957611e086118f7565b5b611e1584828501611daa565b91505092915050565b5f8060408385031215611e3457611e336118f3565b5b5f611e4185828601611974565b925050602083013567ffffffffffffffff811115611e6257611e616118f7565b5b611e6e85828601611daa565b9150509250929050565b7f4e487b71000000000000000000000000000000000000000000000000000000005f52603260045260245ffd5b7f4e487b71000000000000000000000000000000000000000000000000000000005f52601160045260245ffd5b5f611edc82611ac8565b915063ffffffff8203611ef257611ef1611ea5565b5b600182019050919050565b5f8115159050919050565b611f1181611efd565b8114611f1b575f80fd5b50565b5f81519050611f2c81611f08565b92915050565b5f81519050611f408161195e565b92915050565b5f805f805f805f805f806101408b8d031215611f6557611f646118f3565b5b5f611f728d828e01611f1e565b9a50506020611f838d828e01611f1e565b9950506040611f948d828e01611f32565b9850506060611fa58d828e01611f32565b9750506080611fb68d828e01611f32565b96505060a0611fc78d828e01611f32565b95505060c0611fd88d828e01611f32565b94505060e0611fe98d828e01611f32565b935050610100611ffb8d828e01611f32565b92505061012061200d8d828e01611f32565b9150509295989b9194979a5092959850565b7f4e487b71000000000000000000000000000000000000000000000000000000005f52602260045260245ffd5b5f600282049050600182168061206357607f821691505b6020821081036120765761207561201f565b5b50919050565b5f61208682611955565b91507fffffffffffffffffffffffffffffffffffffffffffffffffffffffffffffffff82036120b8576120b7611ea5565b5b600182019050919050565b7f4f6e6c792031207a6f6d6269652063616e2062652063726561746564207065725f8201527f206f776e657220746f20696e697469616c697a65207468652067616d65000000602082015250565b5f61211d603d83611a39565b9150612128826120c3565b604082019050919050565b5f6020820190508181035f83015261214a81612111565b9050919050565b5f819050815f5260205f209050919050565b5f6020601f8301049050919050565b5f82821b905092915050565b5f600883026121ad7fffffffffffffffffffffffffffffffffffffffffffffffffffffffffffffffff82612172565b6121b78683612172565b95508019841693508086168417925050509392505050565b5f819050919050565b5f6121f26121ed6121e884611955565b6121cf565b611955565b9050919050565b5f819050919050565b61220b836121d8565b61221f612217826121f9565b84845461217e565b825550505050565b5f90565b612233612227565b61223e818484612202565b505050565b5b81811015612261576122565f8261222b565b600181019050612244565b5050565b601f8211156122a65761227781612151565b61228084612163565b8101602085101561228f578190505b6122a361229b85612163565b830182612243565b50505b505050565b5f82821c905092915050565b5f6122c65f19846008026122ab565b1980831691505092915050565b5f6122de83836122b7565b9150826002028217905092915050565b6122f782611a2f565b67ffffffffffffffff8111156123105761230f611cb3565b5b61231a825461204c565b612325828285612265565b5f60209050601f831160018114612356575f8415612344578287015190505b61234e85826122d3565b8655506123b5565b601f19841661236486612151565b5f5b8281101561238b57848901518255600182019150602085019450602081019050612366565b868310156123a857848901516123a4601f8916826122b7565b8355505b6001600288020188555050505b505050505050565b5f6123c782611ae6565b915061ffff82036123db576123da611ea5565b5b600182019050919050565b7f4e487b71000000000000000000000000000000000000000000000000000000005f52601260045260245ffd5b5f61241d82611955565b915061242883611955565b925082612438576124376123e6565b5b828206905092915050565b5f61244d82611955565b915061245883611955565b92508282019050808211156124705761246f611ea5565b5b92915050565b5f61248082611955565b915061248b83611955565b92508261249b5761249a6123e6565b5b828204905092915050565b7f6b697474790000000000000000000000000000000000000000000000000000005f82015250565b5f6124da600583611a39565b91506124e5826124a6565b602082019050919050565b5f6020820190508181035f830152612507816124ce565b9050919050565b5f6020820190508181035f8301526125268184611a81565b905092915050565b5f61253882611955565b915061254383611955565b925082820390508181111561255b5761255a611ea5565b5b92915050565b5f61256b82611955565b91505f820361257d5761257c611ea5565b5b600182039050919050565b5f819050919050565b6125a261259d82611955565b612588565b82525050565b5f8160601b9050919050565b5f6125be826125a8565b9050919050565b5f6125cf826125b4565b9050919050565b6125e76125e28261191a565b6125c5565b82525050565b5f6125f88286612591565b60208201915061260882856125d6565b6014820191506126188284612591565b60208201915081905094935050505056fea2646970667358221220810532be26f0619b86bfdff87afd303879e144064ec4d86fae66893966e400e164736f6c63430008150033",
  "immutableReferences": {},
  "source": "// SPDX-License-Identifier: MIT\npragma solidity >=0.4.22 <0.9.0;\n\nimport \"./ZombieOwnership.sol\";\n\ncontract CryptoZombies is ZombieOwnership {\n  function kill() public onlyOwner {\n    selfdestruct(payable(owner()));\n  }\n}\n",
  "sourcePath": "E:\\Freelancer\\dapp-template\\contracts\\contracts\\CryptoZombies.sol",
  "compiler": {
    "name": "solc",
    "version": "0.8.21+commit.d9974bed.Emscripten.clang"
  },
  "schemaVersion": "3.4.16",
  "updatedAt": "2024-08-30T06:52:17.835Z",
  "networkType": "ethereum",
  "devdoc": {
    "errors": {
      "OwnableInvalidOwner(address)": [
        {
          "details": "The owner is not a valid owner account. (eg. `address(0)`)"
        }
      ],
      "OwnableUnauthorizedAccount(address)": [
        {
          "details": "The caller account is not authorized to perform an operation."
        }
      ]
    },
    "events": {
      "Approval(address,address,uint256)": {
        "details": "Emitted when `owner` enables `approved` to manage the `tokenId` token."
      },
      "Transfer(address,address,uint256)": {
        "details": "Emitted when `tokenId` token is transferred from `from` to `to`."
      }
    },
    "kind": "dev",
    "methods": {
      "owner()": {
        "details": "Returns the address of the current owner."
      },
      "renounceOwnership()": {
        "details": "Leaves the contract without owner. It will not be possible to call `onlyOwner` functions. Can only be called by the current owner. NOTE: Renouncing ownership will leave the contract without an owner, thereby disabling any functionality that is only available to the owner."
      },
      "transferOwnership(address)": {
        "details": "Transfers ownership of the contract to a new account (`newOwner`). Can only be called by the current owner."
      }
    },
    "version": 1
  },
  "userdoc": {
    "kind": "user",
    "methods": {},
    "version": 1
  }
}