{
  "contractName": "ZombieFactory",
  "abi": [
    {
      "inputs": [],
      "stateMutability": "nonpayable",
      "type": "constructor"
    },
    {
      "inputs": [
        {
          "internalType": "address",
          "name": "owner",
          "type": "address"
        }
      ],
      "name": "OwnableInvalidOwner",
      "type": "error"
    },
    {
      "inputs": [
        {
          "internalType": "address",
          "name": "account",
          "type": "address"
        }
      ],
      "name": "OwnableUnauthorizedAccount",
      "type": "error"
    },
    {
      "anonymous": false,
      "inputs": [
        {
          "indexed": true,
          "internalType": "uint256",
          "name": "zombieId",
          "type": "uint256"
        },
        {
          "indexed": false,
          "internalType": "string",
          "name": "name",
          "type": "string"
        },
        {
          "indexed": true,
          "internalType": "uint256",
          "name": "dna",
          "type": "uint256"
        }
      ],
      "name": "NewZombie",
      "type": "event"
    },
    {
      "anonymous": false,
      "inputs": [
        {
          "indexed": true,
          "internalType": "address",
          "name": "previousOwner",
          "type": "address"
        },
        {
          "indexed": true,
          "internalType": "address",
          "name": "newOwner",
          "type": "address"
        }
      ],
      "name": "OwnershipTransferred",
      "type": "event"
    },
    {
      "inputs": [],
      "name": "owner",
      "outputs": [
        {
          "internalType": "address",
          "name": "",
          "type": "address"
        }
      ],
      "stateMutability": "view",
      "type": "function"
    },
    {
      "inputs": [],
      "name": "renounceOwnership",
      "outputs": [],
      "stateMutability": "nonpayable",
      "type": "function"
    },
    {
      "inputs": [
        {
          "internalType": "address",
          "name": "newOwner",
          "type": "address"
        }
      ],
      "name": "transferOwnership",
      "outputs": [],
      "stateMutability": "nonpayable",
      "type": "function"
    },
    {
      "inputs": [
        {
          "internalType": "uint256",
          "name": "",
          "type": "uint256"
        }
      ],
      "name": "zombieToOwner",
      "outputs": [
        {
          "internalType": "address",
          "name": "",
          "type": "address"
        }
      ],
      "stateMutability": "view",
      "type": "function"
    },
    {
      "inputs": [
        {
          "internalType": "uint256",
          "name": "",
          "type": "uint256"
        }
      ],
      "name": "zombies",
      "outputs": [
        {
          "internalType": "string",
          "name": "name",
          "type": "string"
        },
        {
          "internalType": "uint256",
          "name": "dna",
          "type": "uint256"
        },
        {
          "internalType": "uint32",
          "name": "level",
          "type": "uint32"
        },
        {
          "internalType": "uint32",
          "name": "readyTime",
          "type": "uint32"
        },
        {
          "internalType": "uint16",
          "name": "winCount",
          "type": "uint16"
        },
        {
          "internalType": "uint16",
          "name": "lossCount",
          "type": "uint16"
        }
      ],
      "stateMutability": "view",
      "type": "function"
    },
    {
      "inputs": [
        {
          "internalType": "string",
          "name": "_name",
          "type": "string"
        }
      ],
      "name": "createRandomZombie",
      "outputs": [],
      "stateMutability": "nonpayable",
      "type": "function"
    }
  ],
  "bytecode": "0x60806040526010600155600154600a6200001a919062000304565b6002556201518060035534801562000030575f80fd5b50335f73ffffffffffffffffffffffffffffffffffffffff168173ffffffffffffffffffffffffffffffffffffffff1603620000a5575f6040517f1e4fbdf70000000000000000000000000000000000000000000000000000000081526004016200009c919062000397565b60405180910390fd5b620000b681620000bd60201b60201c565b50620003b2565b5f805f9054906101000a900473ffffffffffffffffffffffffffffffffffffffff169050815f806101000a81548173ffffffffffffffffffffffffffffffffffffffff021916908373ffffffffffffffffffffffffffffffffffffffff1602179055508173ffffffffffffffffffffffffffffffffffffffff168173ffffffffffffffffffffffffffffffffffffffff167f8be0079c531659141344cd1fd0a4f28419497f9722a3daafe3b4186f6b6457e060405160405180910390a35050565b7f4e487b71000000000000000000000000000000000000000000000000000000005f52601160045260245ffd5b5f8160011c9050919050565b5f808291508390505b60018511156200020857808604811115620001e057620001df6200017e565b5b6001851615620001f05780820291505b80810290506200020085620001ab565b9450620001c0565b94509492505050565b5f82620002225760019050620002f4565b8162000231575f9050620002f4565b81600181146200024a576002811462000255576200028b565b6001915050620002f4565b60ff8411156200026a57620002696200017e565b5b8360020a9150848211156200028457620002836200017e565b5b50620002f4565b5060208310610133831016604e8410600b8410161715620002c55782820a905083811115620002bf57620002be6200017e565b5b620002f4565b620002d48484846001620001b7565b92509050818404811115620002ee57620002ed6200017e565b5b81810290505b9392505050565b5f819050919050565b5f6200031082620002fb565b91506200031d83620002fb565b92506200034c7fffffffffffffffffffffffffffffffffffffffffffffffffffffffffffffffff848462000211565b905092915050565b5f73ffffffffffffffffffffffffffffffffffffffff82169050919050565b5f6200037f8262000354565b9050919050565b620003918162000373565b82525050565b5f602082019050620003ac5f83018462000386565b92915050565b61101480620003c05f395ff3fe608060405234801561000f575f80fd5b5060043610610060575f3560e01c80632052465e14610064578063528b7b8f14610099578063715018a6146100c95780637bff0a01146100d35780638da5cb5b146100ef578063f2fde38b1461010d575b5f80fd5b61007e600480360381019061007991906107ac565b610129565b604051610090969594939291906108aa565b60405180910390f35b6100b360048036038101906100ae91906107ac565b610231565b6040516100c0919061094f565b60405180910390f35b6100d1610261565b005b6100ed60048036038101906100e89190610a94565b610274565b005b6100f761030d565b604051610104919061094f565b60405180910390f35b61012760048036038101906101229190610b05565b610334565b005b60048181548110610138575f80fd5b905f5260205f2090600302015f91509050805f01805461015790610b5d565b80601f016020809104026020016040519081016040528092919081815260200182805461018390610b5d565b80156101ce5780601f106101a5576101008083540402835291602001916101ce565b820191905f5260205f20905b8154815290600101906020018083116101b157829003601f168201915b505050505090806001015490806002015f9054906101000a900463ffffffff16908060020160049054906101000a900463ffffffff16908060020160089054906101000a900461ffff169080600201600a9054906101000a900461ffff16905086565b6005602052805f5260405f205f915054906101000a900473ffffffffffffffffffffffffffffffffffffffff1681565b6102696103b8565b6102725f61043f565b565b5f60065f3373ffffffffffffffffffffffffffffffffffffffff1673ffffffffffffffffffffffffffffffffffffffff1681526020019081526020015f2054146102f3576040517f08c379a00000000000000000000000000000000000000000000000000000000081526004016102ea90610bfd565b60405180910390fd5b5f6102fd82610500565b90506103098282610543565b5050565b5f805f9054906101000a900473ffffffffffffffffffffffffffffffffffffffff16905090565b61033c6103b8565b5f73ffffffffffffffffffffffffffffffffffffffff168173ffffffffffffffffffffffffffffffffffffffff16036103ac575f6040517f1e4fbdf70000000000000000000000000000000000000000000000000000000081526004016103a3919061094f565b60405180910390fd5b6103b58161043f565b50565b6103c0610761565b73ffffffffffffffffffffffffffffffffffffffff166103de61030d565b73ffffffffffffffffffffffffffffffffffffffff161461043d57610401610761565b6040517f118cdaa7000000000000000000000000000000000000000000000000000000008152600401610434919061094f565b60405180910390fd5b565b5f805f9054906101000a900473ffffffffffffffffffffffffffffffffffffffff169050815f806101000a81548173ffffffffffffffffffffffffffffffffffffffff021916908373ffffffffffffffffffffffffffffffffffffffff1602179055508173ffffffffffffffffffffffffffffffffffffffff168173ffffffffffffffffffffffffffffffffffffffff167f8be0079c531659141344cd1fd0a4f28419497f9722a3daafe3b4186f6b6457e060405160405180910390a35050565b5f80826040516020016105139190610c1b565b604051602081830303815290604052805190602001205f1c90506002548161053b9190610c68565b915050919050565b60046040518060c00160405280848152602001838152602001600163ffffffff168152602001600354426105779190610cc5565b63ffffffff1681526020015f61ffff1681526020015f61ffff16815250908060018154018082558091505060019003905f5260205f2090600302015f909190919091505f820151815f0190816105cd9190610e95565b50602082015181600101556040820151816002015f6101000a81548163ffffffff021916908363ffffffff16021790555060608201518160020160046101000a81548163ffffffff021916908363ffffffff16021790555060808201518160020160086101000a81548161ffff021916908361ffff16021790555060a082015181600201600a6101000a81548161ffff021916908361ffff16021790555050505f60016004805490506106809190610f64565b90503360055f8381526020019081526020015f205f6101000a81548173ffffffffffffffffffffffffffffffffffffffff021916908373ffffffffffffffffffffffffffffffffffffffff16021790555060065f3373ffffffffffffffffffffffffffffffffffffffff1673ffffffffffffffffffffffffffffffffffffffff1681526020019081526020015f205f81548092919061071e90610f97565b919050555081817f88f026aacbbecc90c18411df4b1185fd8d9be2470f1962f192bf84a27d0704b7856040516107549190610c1b565b60405180910390a3505050565b5f33905090565b5f604051905090565b5f80fd5b5f80fd5b5f819050919050565b61078b81610779565b8114610795575f80fd5b50565b5f813590506107a681610782565b92915050565b5f602082840312156107c1576107c0610771565b5b5f6107ce84828501610798565b91505092915050565b5f81519050919050565b5f82825260208201905092915050565b5f5b8381101561080e5780820151818401526020810190506107f3565b5f8484015250505050565b5f601f19601f8301169050919050565b5f610833826107d7565b61083d81856107e1565b935061084d8185602086016107f1565b61085681610819565b840191505092915050565b61086a81610779565b82525050565b5f63ffffffff82169050919050565b61088881610870565b82525050565b5f61ffff82169050919050565b6108a48161088e565b82525050565b5f60c0820190508181035f8301526108c28189610829565b90506108d16020830188610861565b6108de604083018761087f565b6108eb606083018661087f565b6108f8608083018561089b565b61090560a083018461089b565b979650505050505050565b5f73ffffffffffffffffffffffffffffffffffffffff82169050919050565b5f61093982610910565b9050919050565b6109498161092f565b82525050565b5f6020820190506109625f830184610940565b92915050565b5f80fd5b5f80fd5b7f4e487b71000000000000000000000000000000000000000000000000000000005f52604160045260245ffd5b6109a682610819565b810181811067ffffffffffffffff821117156109c5576109c4610970565b5b80604052505050565b5f6109d7610768565b90506109e3828261099d565b919050565b5f67ffffffffffffffff821115610a0257610a01610970565b5b610a0b82610819565b9050602081019050919050565b828183375f83830152505050565b5f610a38610a33846109e8565b6109ce565b905082815260208101848484011115610a5457610a5361096c565b5b610a5f848285610a18565b509392505050565b5f82601f830112610a7b57610a7a610968565b5b8135610a8b848260208601610a26565b91505092915050565b5f60208284031215610aa957610aa8610771565b5b5f82013567ffffffffffffffff811115610ac657610ac5610775565b5b610ad284828501610a67565b91505092915050565b610ae48161092f565b8114610aee575f80fd5b50565b5f81359050610aff81610adb565b92915050565b5f60208284031215610b1a57610b19610771565b5b5f610b2784828501610af1565b91505092915050565b7f4e487b71000000000000000000000000000000000000000000000000000000005f52602260045260245ffd5b5f6002820490506001821680610b7457607f821691505b602082108103610b8757610b86610b30565b5b50919050565b7f4f6e6c792031207a6f6d6269652063616e2062652063726561746564207065725f8201527f206f776e657220746f20696e697469616c697a65207468652067616d65000000602082015250565b5f610be7603d836107e1565b9150610bf282610b8d565b604082019050919050565b5f6020820190508181035f830152610c1481610bdb565b9050919050565b5f6020820190508181035f830152610c338184610829565b905092915050565b7f4e487b71000000000000000000000000000000000000000000000000000000005f52601260045260245ffd5b5f610c7282610779565b9150610c7d83610779565b925082610c8d57610c8c610c3b565b5b828206905092915050565b7f4e487b71000000000000000000000000000000000000000000000000000000005f52601160045260245ffd5b5f610ccf82610779565b9150610cda83610779565b9250828201905080821115610cf257610cf1610c98565b5b92915050565b5f819050815f5260205f209050919050565b5f6020601f8301049050919050565b5f82821b905092915050565b5f60088302610d547fffffffffffffffffffffffffffffffffffffffffffffffffffffffffffffffff82610d19565b610d5e8683610d19565b95508019841693508086168417925050509392505050565b5f819050919050565b5f610d99610d94610d8f84610779565b610d76565b610779565b9050919050565b5f819050919050565b610db283610d7f565b610dc6610dbe82610da0565b848454610d25565b825550505050565b5f90565b610dda610dce565b610de5818484610da9565b505050565b5b81811015610e0857610dfd5f82610dd2565b600181019050610deb565b5050565b601f821115610e4d57610e1e81610cf8565b610e2784610d0a565b81016020851015610e36578190505b610e4a610e4285610d0a565b830182610dea565b50505b505050565b5f82821c905092915050565b5f610e6d5f1984600802610e52565b1980831691505092915050565b5f610e858383610e5e565b9150826002028217905092915050565b610e9e826107d7565b67ffffffffffffffff811115610eb757610eb6610970565b5b610ec18254610b5d565b610ecc828285610e0c565b5f60209050601f831160018114610efd575f8415610eeb578287015190505b610ef58582610e7a565b865550610f5c565b601f198416610f0b86610cf8565b5f5b82811015610f3257848901518255600182019150602085019450602081019050610f0d565b86831015610f4f5784890151610f4b601f891682610e5e565b8355505b6001600288020188555050505b505050505050565b5f610f6e82610779565b9150610f7983610779565b9250828203905081811115610f9157610f90610c98565b5b92915050565b5f610fa182610779565b91507fffffffffffffffffffffffffffffffffffffffffffffffffffffffffffffffff8203610fd357610fd2610c98565b5b60018201905091905056fea2646970667358221220722028b63372ee1e03b749d33058cfd19da5f8f4c1a38249edb9f9396dba8d8d64736f6c63430008150033",
  "immutableReferences": {},
  "source": "// SPDX-License-Identifier: MIT\npragma solidity >=0.4.22 <0.9.0;\n\nimport \"@openzeppelin/contracts/access/Ownable.sol\";\nimport \"@openzeppelin/contracts/utils/math/Math.sol\";\ncontract ZombieFactory is Ownable {\n  \n  using Math for uint256;\n\n  event NewZombie(uint indexed zombieId, string name, uint indexed dna);\n\n  uint dnaDigits = 16;\n  uint dnaModulus = 10 ** dnaDigits;\n  uint cooldownTime = 1 days;\n  struct Zombie {\n    string name;\n    uint dna;\n    uint32 level;\n    uint32 readyTime;\n    uint16 winCount;\n    uint16 lossCount;\n  }\n\n  Zombie[] public zombies;\n\n  mapping (uint => address) public zombieToOwner;\n  mapping (address => uint) ownerZombieCount;\n\n  constructor() Ownable(msg.sender) {}\n\n  function _createZombie (string memory _name, uint _dna) internal {\n    zombies.push(Zombie(_name, _dna, 1, uint32(block.timestamp + cooldownTime), 0, 0));\n    uint id = zombies.length - 1;\n    zombieToOwner[id] = msg.sender;\n    ownerZombieCount[msg.sender]++;\n    emit NewZombie(id, _name, _dna);\n  }\n\n  function _generateRandomDna(string memory _str) private view returns(uint) {\n    uint rand = uint(keccak256(abi.encode(_str)));\n    return rand % dnaModulus;\n  }\n\n  function createRandomZombie(string memory _name) public {\n    require(ownerZombieCount[msg.sender] == 0, \"Only 1 zombie can be created per owner to initialize the game\");\n    uint randDna = _generateRandomDna(_name);\n    _createZombie(_name, randDna);\n  }\n}\n",
  "sourcePath": "E:\\Freelancer\\dapp-template\\contracts\\contracts\\ZombieFactory.sol",
  "compiler": {
    "name": "solc",
    "version": "0.8.21+commit.d9974bed.Emscripten.clang"
  },
  "schemaVersion": "3.4.16",
  "updatedAt": "2024-08-16T08:15:30.779Z",
  "devdoc": {
    "errors": {
      "OwnableInvalidOwner(address)": [
        {
          "details": "The owner is not a valid owner account. (eg. `address(0)`)"
        }
      ],
      "OwnableUnauthorizedAccount(address)": [
        {
          "details": "The caller account is not authorized to perform an operation."
        }
      ]
    },
    "kind": "dev",
    "methods": {
      "owner()": {
        "details": "Returns the address of the current owner."
      },
      "renounceOwnership()": {
        "details": "Leaves the contract without owner. It will not be possible to call `onlyOwner` functions. Can only be called by the current owner. NOTE: Renouncing ownership will leave the contract without an owner, thereby disabling any functionality that is only available to the owner."
      },
      "transferOwnership(address)": {
        "details": "Transfers ownership of the contract to a new account (`newOwner`). Can only be called by the current owner."
      }
    },
    "version": 1
  },
  "userdoc": {
    "kind": "user",
    "methods": {},
    "version": 1
  }
}