{
  "contractName": "ZombieFeeding",
  "abi": [
    {
      "inputs": [
        {
          "internalType": "address",
          "name": "owner",
          "type": "address"
        }
      ],
      "name": "OwnableInvalidOwner",
      "type": "error"
    },
    {
      "inputs": [
        {
          "internalType": "address",
          "name": "account",
          "type": "address"
        }
      ],
      "name": "OwnableUnauthorizedAccount",
      "type": "error"
    },
    {
      "anonymous": false,
      "inputs": [
        {
          "indexed": true,
          "internalType": "uint256",
          "name": "zombieId",
          "type": "uint256"
        },
        {
          "indexed": false,
          "internalType": "string",
          "name": "name",
          "type": "string"
        },
        {
          "indexed": true,
          "internalType": "uint256",
          "name": "dna",
          "type": "uint256"
        }
      ],
      "name": "NewZombie",
      "type": "event"
    },
    {
      "anonymous": false,
      "inputs": [
        {
          "indexed": true,
          "internalType": "address",
          "name": "previousOwner",
          "type": "address"
        },
        {
          "indexed": true,
          "internalType": "address",
          "name": "newOwner",
          "type": "address"
        }
      ],
      "name": "OwnershipTransferred",
      "type": "event"
    },
    {
      "inputs": [
        {
          "internalType": "string",
          "name": "_name",
          "type": "string"
        }
      ],
      "name": "createRandomZombie",
      "outputs": [],
      "stateMutability": "nonpayable",
      "type": "function"
    },
    {
      "inputs": [],
      "name": "owner",
      "outputs": [
        {
          "internalType": "address",
          "name": "",
          "type": "address"
        }
      ],
      "stateMutability": "view",
      "type": "function"
    },
    {
      "inputs": [],
      "name": "renounceOwnership",
      "outputs": [],
      "stateMutability": "nonpayable",
      "type": "function"
    },
    {
      "inputs": [
        {
          "internalType": "address",
          "name": "newOwner",
          "type": "address"
        }
      ],
      "name": "transferOwnership",
      "outputs": [],
      "stateMutability": "nonpayable",
      "type": "function"
    },
    {
      "inputs": [
        {
          "internalType": "uint256",
          "name": "",
          "type": "uint256"
        }
      ],
      "name": "zombieToOwner",
      "outputs": [
        {
          "internalType": "address",
          "name": "",
          "type": "address"
        }
      ],
      "stateMutability": "view",
      "type": "function"
    },
    {
      "inputs": [
        {
          "internalType": "uint256",
          "name": "",
          "type": "uint256"
        }
      ],
      "name": "zombies",
      "outputs": [
        {
          "internalType": "string",
          "name": "name",
          "type": "string"
        },
        {
          "internalType": "uint256",
          "name": "dna",
          "type": "uint256"
        },
        {
          "internalType": "uint32",
          "name": "level",
          "type": "uint32"
        },
        {
          "internalType": "uint32",
          "name": "readyTime",
          "type": "uint32"
        },
        {
          "internalType": "uint16",
          "name": "winCount",
          "type": "uint16"
        },
        {
          "internalType": "uint16",
          "name": "lossCount",
          "type": "uint16"
        }
      ],
      "stateMutability": "view",
      "type": "function"
    },
    {
      "inputs": [
        {
          "internalType": "address",
          "name": "_address",
          "type": "address"
        }
      ],
      "name": "setKittyContractAddress",
      "outputs": [],
      "stateMutability": "nonpayable",
      "type": "function"
    },
    {
      "inputs": [
        {
          "internalType": "uint256",
          "name": "_zombieId",
          "type": "uint256"
        },
        {
          "internalType": "uint256",
          "name": "_kittyId",
          "type": "uint256"
        }
      ],
      "name": "feedOnKitty",
      "outputs": [],
      "stateMutability": "nonpayable",
      "type": "function"
    }
  ],
  "bytecode": "0x60806040526010600155600154600a6200001a919062000304565b6002556201518060035534801562000030575f80fd5b50335f73ffffffffffffffffffffffffffffffffffffffff168173ffffffffffffffffffffffffffffffffffffffff1603620000a5575f6040517f1e4fbdf70000000000000000000000000000000000000000000000000000000081526004016200009c919062000397565b60405180910390fd5b620000b681620000bd60201b60201c565b50620003b2565b5f805f9054906101000a900473ffffffffffffffffffffffffffffffffffffffff169050815f806101000a81548173ffffffffffffffffffffffffffffffffffffffff021916908373ffffffffffffffffffffffffffffffffffffffff1602179055508173ffffffffffffffffffffffffffffffffffffffff168173ffffffffffffffffffffffffffffffffffffffff167f8be0079c531659141344cd1fd0a4f28419497f9722a3daafe3b4186f6b6457e060405160405180910390a35050565b7f4e487b71000000000000000000000000000000000000000000000000000000005f52601160045260245ffd5b5f8160011c9050919050565b5f808291508390505b60018511156200020857808604811115620001e057620001df6200017e565b5b6001851615620001f05780820291505b80810290506200020085620001ab565b9450620001c0565b94509492505050565b5f82620002225760019050620002f4565b8162000231575f9050620002f4565b81600181146200024a576002811462000255576200028b565b6001915050620002f4565b60ff8411156200026a57620002696200017e565b5b8360020a9150848211156200028457620002836200017e565b5b50620002f4565b5060208310610133831016604e8410600b8410161715620002c55782820a905083811115620002bf57620002be6200017e565b5b620002f4565b620002d48484846001620001b7565b92509050818404811115620002ee57620002ed6200017e565b5b81810290505b9392505050565b5f819050919050565b5f6200031082620002fb565b91506200031d83620002fb565b92506200034c7fffffffffffffffffffffffffffffffffffffffffffffffffffffffffffffffff848462000211565b905092915050565b5f73ffffffffffffffffffffffffffffffffffffffff82169050919050565b5f6200037f8262000354565b9050919050565b620003918162000373565b82525050565b5f602082019050620003ac5f83018462000386565b92915050565b61160180620003c05f395ff3fe608060405234801561000f575f80fd5b5060043610610086575f3560e01c8063715018a611610059578063715018a6146101275780637bff0a01146101315780638da5cb5b1461014d578063f2fde38b1461016b57610086565b806317a7f4cc1461008a5780632052465e146100a6578063528b7b8f146100db5780635f4623f11461010b575b5f80fd5b6100a4600480360381019061009f9190610b5b565b610187565b005b6100c060048036038101906100bb9190610b99565b6102a1565b6040516100d296959493929190610c97565b60405180910390f35b6100f560048036038101906100f09190610b99565b6103a9565b6040516101029190610d3c565b60405180910390f35b61012560048036038101906101209190610d7f565b6103d9565b005b61012f610424565b005b61014b60048036038101906101469190610ed6565b610437565b005b6101556104d0565b6040516101629190610d3c565b60405180910390f35b61018560048036038101906101809190610d7f565b6104f7565b005b5f60075f9054906101000a900473ffffffffffffffffffffffffffffffffffffffff1673ffffffffffffffffffffffffffffffffffffffff1663e98b7f4d836040518263ffffffff1660e01b81526004016101e29190610f1d565b61014060405180830381865afa1580156101fe573d5f803e3d5ffd5b505050506040513d601f19601f820116820180604052508101906102229190610f7f565b9091929394959697985090919293949596975090919293949596509091929394955090919293945090919293509091925090915090508091505061029c83826040518060400160405280600581526020017f6b6974747900000000000000000000000000000000000000000000000000000081525061057b565b505050565b600481815481106102b0575f80fd5b905f5260205f2090600302015f91509050805f0180546102cf90611085565b80601f01602080910402602001604051908101604052809291908181526020018280546102fb90611085565b80156103465780601f1061031d57610100808354040283529160200191610346565b820191905f5260205f20905b81548152906001019060200180831161032957829003601f168201915b505050505090806001015490806002015f9054906101000a900463ffffffff16908060020160049054906101000a900463ffffffff16908060020160089054906101000a900461ffff169080600201600a9054906101000a900461ffff16905086565b6005602052805f5260405f205f915054906101000a900473ffffffffffffffffffffffffffffffffffffffff1681565b6103e161070e565b8060075f6101000a81548173ffffffffffffffffffffffffffffffffffffffff021916908373ffffffffffffffffffffffffffffffffffffffff16021790555050565b61042c61070e565b6104355f610795565b565b5f60065f3373ffffffffffffffffffffffffffffffffffffffff1673ffffffffffffffffffffffffffffffffffffffff1681526020019081526020015f2054146104b6576040517f08c379a00000000000000000000000000000000000000000000000000000000081526004016104ad90611125565b60405180910390fd5b5f6104c082610856565b90506104cc8282610899565b5050565b5f805f9054906101000a900473ffffffffffffffffffffffffffffffffffffffff16905090565b6104ff61070e565b5f73ffffffffffffffffffffffffffffffffffffffff168173ffffffffffffffffffffffffffffffffffffffff160361056f575f6040517f1e4fbdf70000000000000000000000000000000000000000000000000000000081526004016105669190610d3c565b60405180910390fd5b61057881610795565b50565b8260055f8281526020019081526020015f205f9054906101000a900473ffffffffffffffffffffffffffffffffffffffff1673ffffffffffffffffffffffffffffffffffffffff163373ffffffffffffffffffffffffffffffffffffffff16146105e3575f80fd5b5f600485815481106105f8576105f7611143565b5b905f5260205f209060030201905061060f81610ab7565b610617575f80fd5b60025484610625919061119d565b93505f600285836001015461063a91906111fa565b610644919061122d565b9050604051602001610655906112a7565b604051602081830303815290604052805190602001208460405160200161067c91906112c5565b60405160208183030381529060405280519060200120036106be5760636064826106a6919061119d565b826106b191906112e5565b6106bb91906111fa565b90505b6106fd6040518060400160405280600681526020017f4e6f4e616d65000000000000000000000000000000000000000000000000000081525082610899565b61070682610add565b505050505050565b610716610b10565b73ffffffffffffffffffffffffffffffffffffffff166107346104d0565b73ffffffffffffffffffffffffffffffffffffffff161461079357610757610b10565b6040517f118cdaa700000000000000000000000000000000000000000000000000000000815260040161078a9190610d3c565b60405180910390fd5b565b5f805f9054906101000a900473ffffffffffffffffffffffffffffffffffffffff169050815f806101000a81548173ffffffffffffffffffffffffffffffffffffffff021916908373ffffffffffffffffffffffffffffffffffffffff1602179055508173ffffffffffffffffffffffffffffffffffffffff168173ffffffffffffffffffffffffffffffffffffffff167f8be0079c531659141344cd1fd0a4f28419497f9722a3daafe3b4186f6b6457e060405160405180910390a35050565b5f808260405160200161086991906112c5565b604051602081830303815290604052805190602001205f1c905060025481610891919061119d565b915050919050565b60046040518060c00160405280848152602001838152602001600163ffffffff168152602001600354426108cd91906111fa565b63ffffffff1681526020015f61ffff1681526020015f61ffff16815250908060018154018082558091505060019003905f5260205f2090600302015f909190919091505f820151815f01908161092391906114b5565b50602082015181600101556040820151816002015f6101000a81548163ffffffff021916908363ffffffff16021790555060608201518160020160046101000a81548163ffffffff021916908363ffffffff16021790555060808201518160020160086101000a81548161ffff021916908361ffff16021790555060a082015181600201600a6101000a81548161ffff021916908361ffff16021790555050505f60016004805490506109d691906112e5565b90503360055f8381526020019081526020015f205f6101000a81548173ffffffffffffffffffffffffffffffffffffffff021916908373ffffffffffffffffffffffffffffffffffffffff16021790555060065f3373ffffffffffffffffffffffffffffffffffffffff1673ffffffffffffffffffffffffffffffffffffffff1681526020019081526020015f205f815480929190610a7490611584565b919050555081817f88f026aacbbecc90c18411df4b1185fd8d9be2470f1962f192bf84a27d0704b785604051610aaa91906112c5565b60405180910390a3505050565b5f428260020160049054906101000a900463ffffffff1663ffffffff1611159050919050565b60035442610aeb91906111fa565b8160020160046101000a81548163ffffffff021916908363ffffffff16021790555050565b5f33905090565b5f604051905090565b5f80fd5b5f80fd5b5f819050919050565b610b3a81610b28565b8114610b44575f80fd5b50565b5f81359050610b5581610b31565b92915050565b5f8060408385031215610b7157610b70610b20565b5b5f610b7e85828601610b47565b9250506020610b8f85828601610b47565b9150509250929050565b5f60208284031215610bae57610bad610b20565b5b5f610bbb84828501610b47565b91505092915050565b5f81519050919050565b5f82825260208201905092915050565b5f5b83811015610bfb578082015181840152602081019050610be0565b5f8484015250505050565b5f601f19601f8301169050919050565b5f610c2082610bc4565b610c2a8185610bce565b9350610c3a818560208601610bde565b610c4381610c06565b840191505092915050565b610c5781610b28565b82525050565b5f63ffffffff82169050919050565b610c7581610c5d565b82525050565b5f61ffff82169050919050565b610c9181610c7b565b82525050565b5f60c0820190508181035f830152610caf8189610c16565b9050610cbe6020830188610c4e565b610ccb6040830187610c6c565b610cd86060830186610c6c565b610ce56080830185610c88565b610cf260a0830184610c88565b979650505050505050565b5f73ffffffffffffffffffffffffffffffffffffffff82169050919050565b5f610d2682610cfd565b9050919050565b610d3681610d1c565b82525050565b5f602082019050610d4f5f830184610d2d565b92915050565b610d5e81610d1c565b8114610d68575f80fd5b50565b5f81359050610d7981610d55565b92915050565b5f60208284031215610d9457610d93610b20565b5b5f610da184828501610d6b565b91505092915050565b5f80fd5b5f80fd5b7f4e487b71000000000000000000000000000000000000000000000000000000005f52604160045260245ffd5b610de882610c06565b810181811067ffffffffffffffff82111715610e0757610e06610db2565b5b80604052505050565b5f610e19610b17565b9050610e258282610ddf565b919050565b5f67ffffffffffffffff821115610e4457610e43610db2565b5b610e4d82610c06565b9050602081019050919050565b828183375f83830152505050565b5f610e7a610e7584610e2a565b610e10565b905082815260208101848484011115610e9657610e95610dae565b5b610ea1848285610e5a565b509392505050565b5f82601f830112610ebd57610ebc610daa565b5b8135610ecd848260208601610e68565b91505092915050565b5f60208284031215610eeb57610eea610b20565b5b5f82013567ffffffffffffffff811115610f0857610f07610b24565b5b610f1484828501610ea9565b91505092915050565b5f602082019050610f305f830184610c4e565b92915050565b5f8115159050919050565b610f4a81610f36565b8114610f54575f80fd5b50565b5f81519050610f6581610f41565b92915050565b5f81519050610f7981610b31565b92915050565b5f805f805f805f805f806101408b8d031215610f9e57610f9d610b20565b5b5f610fab8d828e01610f57565b9a50506020610fbc8d828e01610f57565b9950506040610fcd8d828e01610f6b565b9850506060610fde8d828e01610f6b565b9750506080610fef8d828e01610f6b565b96505060a06110008d828e01610f6b565b95505060c06110118d828e01610f6b565b94505060e06110228d828e01610f6b565b9350506101006110348d828e01610f6b565b9250506101206110468d828e01610f6b565b9150509295989b9194979a5092959850565b7f4e487b71000000000000000000000000000000000000000000000000000000005f52602260045260245ffd5b5f600282049050600182168061109c57607f821691505b6020821081036110af576110ae611058565b5b50919050565b7f4f6e6c792031207a6f6d6269652063616e2062652063726561746564207065725f8201527f206f776e657220746f20696e697469616c697a65207468652067616d65000000602082015250565b5f61110f603d83610bce565b915061111a826110b5565b604082019050919050565b5f6020820190508181035f83015261113c81611103565b9050919050565b7f4e487b71000000000000000000000000000000000000000000000000000000005f52603260045260245ffd5b7f4e487b71000000000000000000000000000000000000000000000000000000005f52601260045260245ffd5b5f6111a782610b28565b91506111b283610b28565b9250826111c2576111c1611170565b5b828206905092915050565b7f4e487b71000000000000000000000000000000000000000000000000000000005f52601160045260245ffd5b5f61120482610b28565b915061120f83610b28565b9250828201905080821115611227576112266111cd565b5b92915050565b5f61123782610b28565b915061124283610b28565b92508261125257611251611170565b5b828204905092915050565b7f6b697474790000000000000000000000000000000000000000000000000000005f82015250565b5f611291600583610bce565b915061129c8261125d565b602082019050919050565b5f6020820190508181035f8301526112be81611285565b9050919050565b5f6020820190508181035f8301526112dd8184610c16565b905092915050565b5f6112ef82610b28565b91506112fa83610b28565b9250828203905081811115611312576113116111cd565b5b92915050565b5f819050815f5260205f209050919050565b5f6020601f8301049050919050565b5f82821b905092915050565b5f600883026113747fffffffffffffffffffffffffffffffffffffffffffffffffffffffffffffffff82611339565b61137e8683611339565b95508019841693508086168417925050509392505050565b5f819050919050565b5f6113b96113b46113af84610b28565b611396565b610b28565b9050919050565b5f819050919050565b6113d28361139f565b6113e66113de826113c0565b848454611345565b825550505050565b5f90565b6113fa6113ee565b6114058184846113c9565b505050565b5b818110156114285761141d5f826113f2565b60018101905061140b565b5050565b601f82111561146d5761143e81611318565b6114478461132a565b81016020851015611456578190505b61146a6114628561132a565b83018261140a565b50505b505050565b5f82821c905092915050565b5f61148d5f1984600802611472565b1980831691505092915050565b5f6114a5838361147e565b9150826002028217905092915050565b6114be82610bc4565b67ffffffffffffffff8111156114d7576114d6610db2565b5b6114e18254611085565b6114ec82828561142c565b5f60209050601f83116001811461151d575f841561150b578287015190505b611515858261149a565b86555061157c565b601f19841661152b86611318565b5f5b828110156115525784890151825560018201915060208501945060208101905061152d565b8683101561156f578489015161156b601f89168261147e565b8355505b6001600288020188555050505b505050505050565b5f61158e82610b28565b91507fffffffffffffffffffffffffffffffffffffffffffffffffffffffffffffffff82036115c0576115bf6111cd565b5b60018201905091905056fea264697066735822122025c2ef8e6336e101db52722f4b12d1eb3150f111392c6a447b63a4e654de1c5d64736f6c63430008150033",
  "immutableReferences": {},
  "source": "// SPDX-License-Identifier: MIT\npragma solidity >=0.4.22 <0.9.0;\n\nimport \"./ZombieFactory.sol\";\nimport \"./KittyInterface.sol\";\ncontract ZombieFeeding is ZombieFactory {\n  KittyInterface kittyContract;\n\n  modifier onlyOwnerOf(uint _zombieId) {\n    require(msg.sender == zombieToOwner[_zombieId]);\n    _;\n  }\n\n  function setKittyContractAddress(address _address) external onlyOwner {\n    kittyContract = KittyInterface(_address);\n  }\n\n  function _triggerCooldown(Zombie storage _zombie) internal {\n    _zombie.readyTime = uint32(block.timestamp + cooldownTime);\n  }\n\n  function _isReady(Zombie storage _zombie) internal view returns (bool) {\n    return (_zombie.readyTime <= block.timestamp);\n  }\n\n  function feedAndMultiply(uint _zombieId, uint _targetDna, string memory species) internal onlyOwnerOf(_zombieId) {\n    Zombie storage myZombie = zombies[_zombieId];\n    require(_isReady(myZombie));\n    _targetDna = _targetDna % dnaModulus;\n    uint newDna = (myZombie.dna + _targetDna) / 2;\n    if (keccak256(abi.encode(species)) == keccak256(abi.encode(\"kitty\"))) {\n      newDna = newDna - newDna % 100 + 99;\n    }\n    _createZombie(\"NoName\", newDna);\n    _triggerCooldown(myZombie);\n  }\n\n  function feedOnKitty(uint _zombieId, uint _kittyId) public {\n    uint kittyDna;\n    (,,,,,,,,,kittyDna) = kittyContract.getKitty(_kittyId);\n    feedAndMultiply(_zombieId, kittyDna, \"kitty\");\n  }\n}\n",
  "sourcePath": "E:\\Freelancer\\dapp-template\\contracts\\contracts\\ZombieFeeding.sol",
  "compiler": {
    "name": "solc",
    "version": "0.8.21+commit.d9974bed.Emscripten.clang"
  },
  "schemaVersion": "3.4.16",
  "updatedAt": "2024-08-30T06:52:14.241Z",
  "devdoc": {
    "errors": {
      "OwnableInvalidOwner(address)": [
        {
          "details": "The owner is not a valid owner account. (eg. `address(0)`)"
        }
      ],
      "OwnableUnauthorizedAccount(address)": [
        {
          "details": "The caller account is not authorized to perform an operation."
        }
      ]
    },
    "kind": "dev",
    "methods": {
      "owner()": {
        "details": "Returns the address of the current owner."
      },
      "renounceOwnership()": {
        "details": "Leaves the contract without owner. It will not be possible to call `onlyOwner` functions. Can only be called by the current owner. NOTE: Renouncing ownership will leave the contract without an owner, thereby disabling any functionality that is only available to the owner."
      },
      "transferOwnership(address)": {
        "details": "Transfers ownership of the contract to a new account (`newOwner`). Can only be called by the current owner."
      }
    },
    "version": 1
  },
  "userdoc": {
    "kind": "user",
    "methods": {},
    "version": 1
  }
}