{
  "contractName": "ZombieHelper",
  "abi": [
    {
      "inputs": [
        {
          "internalType": "address",
          "name": "owner",
          "type": "address"
        }
      ],
      "name": "OwnableInvalidOwner",
      "type": "error"
    },
    {
      "inputs": [
        {
          "internalType": "address",
          "name": "account",
          "type": "address"
        }
      ],
      "name": "OwnableUnauthorizedAccount",
      "type": "error"
    },
    {
      "anonymous": false,
      "inputs": [
        {
          "indexed": true,
          "internalType": "uint256",
          "name": "zombieId",
          "type": "uint256"
        },
        {
          "indexed": false,
          "internalType": "string",
          "name": "name",
          "type": "string"
        },
        {
          "indexed": true,
          "internalType": "uint256",
          "name": "dna",
          "type": "uint256"
        }
      ],
      "name": "NewZombie",
      "type": "event"
    },
    {
      "anonymous": false,
      "inputs": [
        {
          "indexed": true,
          "internalType": "address",
          "name": "previousOwner",
          "type": "address"
        },
        {
          "indexed": true,
          "internalType": "address",
          "name": "newOwner",
          "type": "address"
        }
      ],
      "name": "OwnershipTransferred",
      "type": "event"
    },
    {
      "inputs": [
        {
          "internalType": "string",
          "name": "_name",
          "type": "string"
        }
      ],
      "name": "createRandomZombie",
      "outputs": [],
      "stateMutability": "nonpayable",
      "type": "function"
    },
    {
      "inputs": [
        {
          "internalType": "uint256",
          "name": "_zombieId",
          "type": "uint256"
        },
        {
          "internalType": "uint256",
          "name": "_kittyId",
          "type": "uint256"
        }
      ],
      "name": "feedOnKitty",
      "outputs": [],
      "stateMutability": "nonpayable",
      "type": "function"
    },
    {
      "inputs": [],
      "name": "owner",
      "outputs": [
        {
          "internalType": "address",
          "name": "",
          "type": "address"
        }
      ],
      "stateMutability": "view",
      "type": "function"
    },
    {
      "inputs": [],
      "name": "renounceOwnership",
      "outputs": [],
      "stateMutability": "nonpayable",
      "type": "function"
    },
    {
      "inputs": [
        {
          "internalType": "address",
          "name": "_address",
          "type": "address"
        }
      ],
      "name": "setKittyContractAddress",
      "outputs": [],
      "stateMutability": "nonpayable",
      "type": "function"
    },
    {
      "inputs": [
        {
          "internalType": "address",
          "name": "newOwner",
          "type": "address"
        }
      ],
      "name": "transferOwnership",
      "outputs": [],
      "stateMutability": "nonpayable",
      "type": "function"
    },
    {
      "inputs": [
        {
          "internalType": "uint256",
          "name": "",
          "type": "uint256"
        }
      ],
      "name": "zombieToOwner",
      "outputs": [
        {
          "internalType": "address",
          "name": "",
          "type": "address"
        }
      ],
      "stateMutability": "view",
      "type": "function"
    },
    {
      "inputs": [
        {
          "internalType": "uint256",
          "name": "",
          "type": "uint256"
        }
      ],
      "name": "zombies",
      "outputs": [
        {
          "internalType": "string",
          "name": "name",
          "type": "string"
        },
        {
          "internalType": "uint256",
          "name": "dna",
          "type": "uint256"
        },
        {
          "internalType": "uint32",
          "name": "level",
          "type": "uint32"
        },
        {
          "internalType": "uint32",
          "name": "readyTime",
          "type": "uint32"
        },
        {
          "internalType": "uint16",
          "name": "winCount",
          "type": "uint16"
        },
        {
          "internalType": "uint16",
          "name": "lossCount",
          "type": "uint16"
        }
      ],
      "stateMutability": "view",
      "type": "function"
    },
    {
      "inputs": [],
      "name": "withdraw",
      "outputs": [],
      "stateMutability": "nonpayable",
      "type": "function"
    },
    {
      "inputs": [
        {
          "internalType": "uint256",
          "name": "_fee",
          "type": "uint256"
        }
      ],
      "name": "setLevelUpFee",
      "outputs": [],
      "stateMutability": "nonpayable",
      "type": "function"
    },
    {
      "inputs": [
        {
          "internalType": "uint256",
          "name": "_zombieId",
          "type": "uint256"
        }
      ],
      "name": "levelUp",
      "outputs": [],
      "stateMutability": "payable",
      "type": "function"
    },
    {
      "inputs": [
        {
          "internalType": "uint256",
          "name": "_zombieId",
          "type": "uint256"
        },
        {
          "internalType": "string",
          "name": "_newName",
          "type": "string"
        }
      ],
      "name": "changeName",
      "outputs": [],
      "stateMutability": "nonpayable",
      "type": "function"
    },
    {
      "inputs": [
        {
          "internalType": "uint256",
          "name": "_zombieId",
          "type": "uint256"
        },
        {
          "internalType": "uint256",
          "name": "_newDna",
          "type": "uint256"
        }
      ],
      "name": "changeDna",
      "outputs": [],
      "stateMutability": "nonpayable",
      "type": "function"
    },
    {
      "inputs": [
        {
          "internalType": "address",
          "name": "_owner",
          "type": "address"
        }
      ],
      "name": "getZombiesByOwner",
      "outputs": [
        {
          "internalType": "uint256[]",
          "name": "",
          "type": "uint256[]"
        }
      ],
      "stateMutability": "view",
      "type": "function"
    }
  ],
  "bytecode": "0x60806040526010600155600154600a6200001a91906200030f565b6002556201518060035566038d7ea4c680006008553480156200003b575f80fd5b50335f73ffffffffffffffffffffffffffffffffffffffff168173ffffffffffffffffffffffffffffffffffffffff1603620000b0575f6040517f1e4fbdf7000000000000000000000000000000000000000000000000000000008152600401620000a79190620003a2565b60405180910390fd5b620000c181620000c860201b60201c565b50620003bd565b5f805f9054906101000a900473ffffffffffffffffffffffffffffffffffffffff169050815f806101000a81548173ffffffffffffffffffffffffffffffffffffffff021916908373ffffffffffffffffffffffffffffffffffffffff1602179055508173ffffffffffffffffffffffffffffffffffffffff168173ffffffffffffffffffffffffffffffffffffffff167f8be0079c531659141344cd1fd0a4f28419497f9722a3daafe3b4186f6b6457e060405160405180910390a35050565b7f4e487b71000000000000000000000000000000000000000000000000000000005f52601160045260245ffd5b5f8160011c9050919050565b5f808291508390505b60018511156200021357808604811115620001eb57620001ea62000189565b5b6001851615620001fb5780820291505b80810290506200020b85620001b6565b9450620001cb565b94509492505050565b5f826200022d5760019050620002ff565b816200023c575f9050620002ff565b8160018114620002555760028114620002605762000296565b6001915050620002ff565b60ff84111562000275576200027462000189565b5b8360020a9150848211156200028f576200028e62000189565b5b50620002ff565b5060208310610133831016604e8410600b8410161715620002d05782820a905083811115620002ca57620002c962000189565b5b620002ff565b620002df8484846001620001c2565b92509050818404811115620002f957620002f862000189565b5b81810290505b9392505050565b5f819050919050565b5f6200031b8262000306565b9150620003288362000306565b9250620003577fffffffffffffffffffffffffffffffffffffffffffffffffffffffffffffffff84846200021c565b905092915050565b5f73ffffffffffffffffffffffffffffffffffffffff82169050919050565b5f6200038a826200035f565b9050919050565b6200039c816200037e565b82525050565b5f602082019050620003b75f83018462000391565b92915050565b611cfc80620003cb5f395ff3fe6080604052600436106100dc575f3560e01c80635faf28801161007e5780638da5cb5b116100585780638da5cb5b14610281578063c39cbef1146102ab578063ccf670f8146102d3578063f2fde38b146102fb576100dc565b80635faf28801461021b578063715018a6146102435780637bff0a0114610259576100dc565b80633ccfd60b116100ba5780633ccfd60b146101655780634412e1041461017b578063528b7b8f146101b75780635f4623f1146101f3576100dc565b80630ce90ec2146100e057806317a7f4cc146100fc5780632052465e14610124575b5f80fd5b6100fa60048036038101906100f591906110fa565b610323565b005b348015610107575f80fd5b50610122600480360381019061011d9190611125565b610394565b005b34801561012f575f80fd5b5061014a600480360381019061014591906110fa565b6104ae565b60405161015c96959493929190611236565b60405180910390f35b348015610170575f80fd5b506101796105b6565b005b348015610186575f80fd5b506101a1600480360381019061019c91906112f6565b610627565b6040516101ae91906113d8565b60405180910390f35b3480156101c2575f80fd5b506101dd60048036038101906101d891906110fa565b610772565b6040516101ea9190611407565b60405180910390f35b3480156101fe575f80fd5b50610219600480360381019061021491906112f6565b6107a2565b005b348015610226575f80fd5b50610241600480360381019061023c9190611125565b6107ed565b005b34801561024e575f80fd5b506102576108cb565b005b348015610264575f80fd5b5061027f600480360381019061027a919061154c565b6108de565b005b34801561028c575f80fd5b50610295610977565b6040516102a29190611407565b60405180910390f35b3480156102b6575f80fd5b506102d160048036038101906102cc9190611593565b61099e565b005b3480156102de575f80fd5b506102f960048036038101906102f491906110fa565b610a84565b005b348015610306575f80fd5b50610321600480360381019061031c91906112f6565b610a96565b005b6008543414610330575f80fd5b60048181548110610344576103436115ed565b5b905f5260205f2090600302016002015f81819054906101000a900463ffffffff168092919061037290611647565b91906101000a81548163ffffffff021916908363ffffffff1602179055505050565b5f60075f9054906101000a900473ffffffffffffffffffffffffffffffffffffffff1673ffffffffffffffffffffffffffffffffffffffff1663e98b7f4d836040518263ffffffff1660e01b81526004016103ef9190611672565b61014060405180830381865afa15801561040b573d5f803e3d5ffd5b505050506040513d601f19601f8201168201806040525081019061042f91906116d4565b909192939495969798509091929394959697509091929394959650909192939495509091929394509091929350909192509091509050809150506104a983826040518060400160405280600581526020017f6b69747479000000000000000000000000000000000000000000000000000000815250610b1a565b505050565b600481815481106104bd575f80fd5b905f5260205f2090600302015f91509050805f0180546104dc906117da565b80601f0160208091040260200160405190810160405280929190818152602001828054610508906117da565b80156105535780601f1061052a57610100808354040283529160200191610553565b820191905f5260205f20905b81548152906001019060200180831161053657829003601f168201915b505050505090806001015490806002015f9054906101000a900463ffffffff16908060020160049054906101000a900463ffffffff16908060020160089054906101000a900461ffff169080600201600a9054906101000a900461ffff16905086565b6105be610cad565b5f6105c7610977565b90508073ffffffffffffffffffffffffffffffffffffffff166108fc8273ffffffffffffffffffffffffffffffffffffffff163190811502906040515f60405180830381858888f19350505050158015610623573d5f803e3d5ffd5b5050565b60605f60065f8473ffffffffffffffffffffffffffffffffffffffff1673ffffffffffffffffffffffffffffffffffffffff1681526020019081526020015f205467ffffffffffffffff81111561068157610680611428565b5b6040519080825280602002602001820160405280156106af5781602001602082028036833780820191505090505b5090505f805b600480549050811015610767578473ffffffffffffffffffffffffffffffffffffffff1660055f8381526020019081526020015f205f9054906101000a900473ffffffffffffffffffffffffffffffffffffffff1673ffffffffffffffffffffffffffffffffffffffff16036107545780838381518110610739576107386115ed565b5b60200260200101818152505081806107509061180a565b9250505b808061075f9061180a565b9150506106b5565b508192505050919050565b6005602052805f5260405f205f915054906101000a900473ffffffffffffffffffffffffffffffffffffffff1681565b6107aa610cad565b8060075f6101000a81548173ffffffffffffffffffffffffffffffffffffffff021916908373ffffffffffffffffffffffffffffffffffffffff16021790555050565b6014828160048281548110610805576108046115ed565b5b905f5260205f2090600302016002015f9054906101000a900463ffffffff1663ffffffff161015610834575f80fd5b8360055f8281526020019081526020015f205f9054906101000a900473ffffffffffffffffffffffffffffffffffffffff1673ffffffffffffffffffffffffffffffffffffffff163373ffffffffffffffffffffffffffffffffffffffff161461089c575f80fd5b83600486815481106108b1576108b06115ed565b5b905f5260205f209060030201600101819055505050505050565b6108d3610cad565b6108dc5f610d34565b565b5f60065f3373ffffffffffffffffffffffffffffffffffffffff1673ffffffffffffffffffffffffffffffffffffffff1681526020019081526020015f20541461095d576040517f08c379a0000000000000000000000000000000000000000000000000000000008152600401610954906118c1565b60405180910390fd5b5f61096782610df5565b90506109738282610e38565b5050565b5f805f9054906101000a900473ffffffffffffffffffffffffffffffffffffffff16905090565b60028281600482815481106109b6576109b56115ed565b5b905f5260205f2090600302016002015f9054906101000a900463ffffffff1663ffffffff1610156109e5575f80fd5b8360055f8281526020019081526020015f205f9054906101000a900473ffffffffffffffffffffffffffffffffffffffff1673ffffffffffffffffffffffffffffffffffffffff163373ffffffffffffffffffffffffffffffffffffffff1614610a4d575f80fd5b8360048681548110610a6257610a616115ed565b5b905f5260205f2090600302015f019081610a7c9190611a7c565b505050505050565b610a8c610cad565b8060088190555050565b610a9e610cad565b5f73ffffffffffffffffffffffffffffffffffffffff168173ffffffffffffffffffffffffffffffffffffffff1603610b0e575f6040517f1e4fbdf7000000000000000000000000000000000000000000000000000000008152600401610b059190611407565b60405180910390fd5b610b1781610d34565b50565b8260055f8281526020019081526020015f205f9054906101000a900473ffffffffffffffffffffffffffffffffffffffff1673ffffffffffffffffffffffffffffffffffffffff163373ffffffffffffffffffffffffffffffffffffffff1614610b82575f80fd5b5f60048581548110610b9757610b966115ed565b5b905f5260205f2090600302019050610bae81611056565b610bb6575f80fd5b60025484610bc49190611b78565b93505f6002858360010154610bd99190611ba8565b610be39190611bdb565b9050604051602001610bf490611c55565b6040516020818303038152906040528051906020012084604051602001610c1b9190611c73565b6040516020818303038152906040528051906020012003610c5d576063606482610c459190611b78565b82610c509190611c93565b610c5a9190611ba8565b90505b610c9c6040518060400160405280600681526020017f4e6f4e616d65000000000000000000000000000000000000000000000000000081525082610e38565b610ca58261107c565b505050505050565b610cb56110af565b73ffffffffffffffffffffffffffffffffffffffff16610cd3610977565b73ffffffffffffffffffffffffffffffffffffffff1614610d3257610cf66110af565b6040517f118cdaa7000000000000000000000000000000000000000000000000000000008152600401610d299190611407565b60405180910390fd5b565b5f805f9054906101000a900473ffffffffffffffffffffffffffffffffffffffff169050815f806101000a81548173ffffffffffffffffffffffffffffffffffffffff021916908373ffffffffffffffffffffffffffffffffffffffff1602179055508173ffffffffffffffffffffffffffffffffffffffff168173ffffffffffffffffffffffffffffffffffffffff167f8be0079c531659141344cd1fd0a4f28419497f9722a3daafe3b4186f6b6457e060405160405180910390a35050565b5f8082604051602001610e089190611c73565b604051602081830303815290604052805190602001205f1c905060025481610e309190611b78565b915050919050565b60046040518060c00160405280848152602001838152602001600163ffffffff16815260200160035442610e6c9190611ba8565b63ffffffff1681526020015f61ffff1681526020015f61ffff16815250908060018154018082558091505060019003905f5260205f2090600302015f909190919091505f820151815f019081610ec29190611a7c565b50602082015181600101556040820151816002015f6101000a81548163ffffffff021916908363ffffffff16021790555060608201518160020160046101000a81548163ffffffff021916908363ffffffff16021790555060808201518160020160086101000a81548161ffff021916908361ffff16021790555060a082015181600201600a6101000a81548161ffff021916908361ffff16021790555050505f6001600480549050610f759190611c93565b90503360055f8381526020019081526020015f205f6101000a81548173ffffffffffffffffffffffffffffffffffffffff021916908373ffffffffffffffffffffffffffffffffffffffff16021790555060065f3373ffffffffffffffffffffffffffffffffffffffff1673ffffffffffffffffffffffffffffffffffffffff1681526020019081526020015f205f8154809291906110139061180a565b919050555081817f88f026aacbbecc90c18411df4b1185fd8d9be2470f1962f192bf84a27d0704b7856040516110499190611c73565b60405180910390a3505050565b5f428260020160049054906101000a900463ffffffff1663ffffffff1611159050919050565b6003544261108a9190611ba8565b8160020160046101000a81548163ffffffff021916908363ffffffff16021790555050565b5f33905090565b5f604051905090565b5f80fd5b5f80fd5b5f819050919050565b6110d9816110c7565b81146110e3575f80fd5b50565b5f813590506110f4816110d0565b92915050565b5f6020828403121561110f5761110e6110bf565b5b5f61111c848285016110e6565b91505092915050565b5f806040838503121561113b5761113a6110bf565b5b5f611148858286016110e6565b9250506020611159858286016110e6565b9150509250929050565b5f81519050919050565b5f82825260208201905092915050565b5f5b8381101561119a57808201518184015260208101905061117f565b5f8484015250505050565b5f601f19601f8301169050919050565b5f6111bf82611163565b6111c9818561116d565b93506111d981856020860161117d565b6111e2816111a5565b840191505092915050565b6111f6816110c7565b82525050565b5f63ffffffff82169050919050565b611214816111fc565b82525050565b5f61ffff82169050919050565b6112308161121a565b82525050565b5f60c0820190508181035f83015261124e81896111b5565b905061125d60208301886111ed565b61126a604083018761120b565b611277606083018661120b565b6112846080830185611227565b61129160a0830184611227565b979650505050505050565b5f73ffffffffffffffffffffffffffffffffffffffff82169050919050565b5f6112c58261129c565b9050919050565b6112d5816112bb565b81146112df575f80fd5b50565b5f813590506112f0816112cc565b92915050565b5f6020828403121561130b5761130a6110bf565b5b5f611318848285016112e2565b91505092915050565b5f81519050919050565b5f82825260208201905092915050565b5f819050602082019050919050565b611353816110c7565b82525050565b5f611364838361134a565b60208301905092915050565b5f602082019050919050565b5f61138682611321565b611390818561132b565b935061139b8361133b565b805f5b838110156113cb5781516113b28882611359565b97506113bd83611370565b92505060018101905061139e565b5085935050505092915050565b5f6020820190508181035f8301526113f0818461137c565b905092915050565b611401816112bb565b82525050565b5f60208201905061141a5f8301846113f8565b92915050565b5f80fd5b5f80fd5b7f4e487b71000000000000000000000000000000000000000000000000000000005f52604160045260245ffd5b61145e826111a5565b810181811067ffffffffffffffff8211171561147d5761147c611428565b5b80604052505050565b5f61148f6110b6565b905061149b8282611455565b919050565b5f67ffffffffffffffff8211156114ba576114b9611428565b5b6114c3826111a5565b9050602081019050919050565b828183375f83830152505050565b5f6114f06114eb846114a0565b611486565b90508281526020810184848401111561150c5761150b611424565b5b6115178482856114d0565b509392505050565b5f82601f83011261153357611532611420565b5b81356115438482602086016114de565b91505092915050565b5f60208284031215611561576115606110bf565b5b5f82013567ffffffffffffffff81111561157e5761157d6110c3565b5b61158a8482850161151f565b91505092915050565b5f80604083850312156115a9576115a86110bf565b5b5f6115b6858286016110e6565b925050602083013567ffffffffffffffff8111156115d7576115d66110c3565b5b6115e38582860161151f565b9150509250929050565b7f4e487b71000000000000000000000000000000000000000000000000000000005f52603260045260245ffd5b7f4e487b71000000000000000000000000000000000000000000000000000000005f52601160045260245ffd5b5f611651826111fc565b915063ffffffff82036116675761166661161a565b5b600182019050919050565b5f6020820190506116855f8301846111ed565b92915050565b5f8115159050919050565b61169f8161168b565b81146116a9575f80fd5b50565b5f815190506116ba81611696565b92915050565b5f815190506116ce816110d0565b92915050565b5f805f805f805f805f806101408b8d0312156116f3576116f26110bf565b5b5f6117008d828e016116ac565b9a505060206117118d828e016116ac565b99505060406117228d828e016116c0565b98505060606117338d828e016116c0565b97505060806117448d828e016116c0565b96505060a06117558d828e016116c0565b95505060c06117668d828e016116c0565b94505060e06117778d828e016116c0565b9350506101006117898d828e016116c0565b92505061012061179b8d828e016116c0565b9150509295989b9194979a5092959850565b7f4e487b71000000000000000000000000000000000000000000000000000000005f52602260045260245ffd5b5f60028204905060018216806117f157607f821691505b602082108103611804576118036117ad565b5b50919050565b5f611814826110c7565b91507fffffffffffffffffffffffffffffffffffffffffffffffffffffffffffffffff82036118465761184561161a565b5b600182019050919050565b7f4f6e6c792031207a6f6d6269652063616e2062652063726561746564207065725f8201527f206f776e657220746f20696e697469616c697a65207468652067616d65000000602082015250565b5f6118ab603d8361116d565b91506118b682611851565b604082019050919050565b5f6020820190508181035f8301526118d88161189f565b9050919050565b5f819050815f5260205f209050919050565b5f6020601f8301049050919050565b5f82821b905092915050565b5f6008830261193b7fffffffffffffffffffffffffffffffffffffffffffffffffffffffffffffffff82611900565b6119458683611900565b95508019841693508086168417925050509392505050565b5f819050919050565b5f61198061197b611976846110c7565b61195d565b6110c7565b9050919050565b5f819050919050565b61199983611966565b6119ad6119a582611987565b84845461190c565b825550505050565b5f90565b6119c16119b5565b6119cc818484611990565b505050565b5b818110156119ef576119e45f826119b9565b6001810190506119d2565b5050565b601f821115611a3457611a05816118df565b611a0e846118f1565b81016020851015611a1d578190505b611a31611a29856118f1565b8301826119d1565b50505b505050565b5f82821c905092915050565b5f611a545f1984600802611a39565b1980831691505092915050565b5f611a6c8383611a45565b9150826002028217905092915050565b611a8582611163565b67ffffffffffffffff811115611a9e57611a9d611428565b5b611aa882546117da565b611ab38282856119f3565b5f60209050601f831160018114611ae4575f8415611ad2578287015190505b611adc8582611a61565b865550611b43565b601f198416611af2866118df565b5f5b82811015611b1957848901518255600182019150602085019450602081019050611af4565b86831015611b365784890151611b32601f891682611a45565b8355505b6001600288020188555050505b505050505050565b7f4e487b71000000000000000000000000000000000000000000000000000000005f52601260045260245ffd5b5f611b82826110c7565b9150611b8d836110c7565b925082611b9d57611b9c611b4b565b5b828206905092915050565b5f611bb2826110c7565b9150611bbd836110c7565b9250828201905080821115611bd557611bd461161a565b5b92915050565b5f611be5826110c7565b9150611bf0836110c7565b925082611c0057611bff611b4b565b5b828204905092915050565b7f6b697474790000000000000000000000000000000000000000000000000000005f82015250565b5f611c3f60058361116d565b9150611c4a82611c0b565b602082019050919050565b5f6020820190508181035f830152611c6c81611c33565b9050919050565b5f6020820190508181035f830152611c8b81846111b5565b905092915050565b5f611c9d826110c7565b9150611ca8836110c7565b9250828203905081811115611cc057611cbf61161a565b5b9291505056fea26469706673582212208d98070844029eab95297638d41586a6289d7fb24cb16f89826c73b1f255790764736f6c63430008150033",
  "immutableReferences": {},
  "source": "// SPDX-License-Identifier: MIT\npragma solidity >=0.4.22 <0.9.0;\n\nimport \"./ZombieFeeding.sol\";\ncontract ZombieHelper is ZombieFeeding {\n\n  uint levelUpFee = 0.001 ether;\n\n  modifier aboveLevel(uint _level, uint _zombieId) {\n    require(zombies[_zombieId].level >= _level);\n    _;\n  }\n\n  function withdraw() external onlyOwner {\n    address payable ownerAddress = payable(owner());\n    ownerAddress.transfer(ownerAddress.balance);\n  }\n\n  function setLevelUpFee(uint _fee) external onlyOwner {\n    levelUpFee = _fee;\n  }\n\n  function levelUp(uint _zombieId) external payable {\n    require(msg.value == levelUpFee);\n    zombies[_zombieId].level++;\n  }\n\n  function changeName(uint _zombieId, string memory _newName) external aboveLevel(2, _zombieId) onlyOwnerOf(_zombieId) {\n    zombies[_zombieId].name = _newName;\n  }\n\n  function changeDna(uint _zombieId, uint _newDna) external aboveLevel(20, _zombieId) onlyOwnerOf(_zombieId) {\n    zombies[_zombieId].dna = _newDna;\n  }\n\n  function getZombiesByOwner(address _owner) external view returns (uint[] memory) {\n    uint[] memory result = new uint[](ownerZombieCount[_owner]);\n    uint counter = 0;\n    for (uint i = 0; i< zombies.length; i++) {\n      if(zombieToOwner[i] == _owner) {\n        result[counter] = i;\n        counter++;\n      } \n    }\n    return result;\n  }\n}\n",
  "sourcePath": "E:\\Freelancer\\dapp-template\\contracts\\contracts\\ZombieHelper.sol",
  "compiler": {
    "name": "solc",
    "version": "0.8.21+commit.d9974bed.Emscripten.clang"
  },
  "schemaVersion": "3.4.16",
  "updatedAt": "2024-08-16T08:15:30.794Z",
  "devdoc": {
    "errors": {
      "OwnableInvalidOwner(address)": [
        {
          "details": "The owner is not a valid owner account. (eg. `address(0)`)"
        }
      ],
      "OwnableUnauthorizedAccount(address)": [
        {
          "details": "The caller account is not authorized to perform an operation."
        }
      ]
    },
    "kind": "dev",
    "methods": {
      "owner()": {
        "details": "Returns the address of the current owner."
      },
      "renounceOwnership()": {
        "details": "Leaves the contract without owner. It will not be possible to call `onlyOwner` functions. Can only be called by the current owner. NOTE: Renouncing ownership will leave the contract without an owner, thereby disabling any functionality that is only available to the owner."
      },
      "transferOwnership(address)": {
        "details": "Transfers ownership of the contract to a new account (`newOwner`). Can only be called by the current owner."
      }
    },
    "version": 1
  },
  "userdoc": {
    "kind": "user",
    "methods": {},
    "version": 1
  }
}