{
  "contractName": "ZombieBattle",
  "abi": [
    {
      "inputs": [
        {
          "internalType": "address",
          "name": "owner",
          "type": "address"
        }
      ],
      "name": "OwnableInvalidOwner",
      "type": "error"
    },
    {
      "inputs": [
        {
          "internalType": "address",
          "name": "account",
          "type": "address"
        }
      ],
      "name": "OwnableUnauthorizedAccount",
      "type": "error"
    },
    {
      "anonymous": false,
      "inputs": [
        {
          "indexed": true,
          "internalType": "uint256",
          "name": "zombieId",
          "type": "uint256"
        },
        {
          "indexed": false,
          "internalType": "string",
          "name": "name",
          "type": "string"
        },
        {
          "indexed": true,
          "internalType": "uint256",
          "name": "dna",
          "type": "uint256"
        }
      ],
      "name": "NewZombie",
      "type": "event"
    },
    {
      "anonymous": false,
      "inputs": [
        {
          "indexed": true,
          "internalType": "address",
          "name": "previousOwner",
          "type": "address"
        },
        {
          "indexed": true,
          "internalType": "address",
          "name": "newOwner",
          "type": "address"
        }
      ],
      "name": "OwnershipTransferred",
      "type": "event"
    },
    {
      "inputs": [
        {
          "internalType": "uint256",
          "name": "_zombieId",
          "type": "uint256"
        },
        {
          "internalType": "uint256",
          "name": "_newDna",
          "type": "uint256"
        }
      ],
      "name": "changeDna",
      "outputs": [],
      "stateMutability": "nonpayable",
      "type": "function"
    },
    {
      "inputs": [
        {
          "internalType": "uint256",
          "name": "_zombieId",
          "type": "uint256"
        },
        {
          "internalType": "string",
          "name": "_newName",
          "type": "string"
        }
      ],
      "name": "changeName",
      "outputs": [],
      "stateMutability": "nonpayable",
      "type": "function"
    },
    {
      "inputs": [
        {
          "internalType": "string",
          "name": "_name",
          "type": "string"
        }
      ],
      "name": "createRandomZombie",
      "outputs": [],
      "stateMutability": "nonpayable",
      "type": "function"
    },
    {
      "inputs": [
        {
          "internalType": "uint256",
          "name": "_zombieId",
          "type": "uint256"
        },
        {
          "internalType": "uint256",
          "name": "_kittyId",
          "type": "uint256"
        }
      ],
      "name": "feedOnKitty",
      "outputs": [],
      "stateMutability": "nonpayable",
      "type": "function"
    },
    {
      "inputs": [
        {
          "internalType": "address",
          "name": "_owner",
          "type": "address"
        }
      ],
      "name": "getZombiesByOwner",
      "outputs": [
        {
          "internalType": "uint256[]",
          "name": "",
          "type": "uint256[]"
        }
      ],
      "stateMutability": "view",
      "type": "function"
    },
    {
      "inputs": [
        {
          "internalType": "uint256",
          "name": "_zombieId",
          "type": "uint256"
        }
      ],
      "name": "levelUp",
      "outputs": [],
      "stateMutability": "payable",
      "type": "function"
    },
    {
      "inputs": [],
      "name": "owner",
      "outputs": [
        {
          "internalType": "address",
          "name": "",
          "type": "address"
        }
      ],
      "stateMutability": "view",
      "type": "function"
    },
    {
      "inputs": [],
      "name": "renounceOwnership",
      "outputs": [],
      "stateMutability": "nonpayable",
      "type": "function"
    },
    {
      "inputs": [
        {
          "internalType": "address",
          "name": "_address",
          "type": "address"
        }
      ],
      "name": "setKittyContractAddress",
      "outputs": [],
      "stateMutability": "nonpayable",
      "type": "function"
    },
    {
      "inputs": [
        {
          "internalType": "uint256",
          "name": "_fee",
          "type": "uint256"
        }
      ],
      "name": "setLevelUpFee",
      "outputs": [],
      "stateMutability": "nonpayable",
      "type": "function"
    },
    {
      "inputs": [
        {
          "internalType": "address",
          "name": "newOwner",
          "type": "address"
        }
      ],
      "name": "transferOwnership",
      "outputs": [],
      "stateMutability": "nonpayable",
      "type": "function"
    },
    {
      "inputs": [],
      "name": "withdraw",
      "outputs": [],
      "stateMutability": "nonpayable",
      "type": "function"
    },
    {
      "inputs": [
        {
          "internalType": "uint256",
          "name": "",
          "type": "uint256"
        }
      ],
      "name": "zombieToOwner",
      "outputs": [
        {
          "internalType": "address",
          "name": "",
          "type": "address"
        }
      ],
      "stateMutability": "view",
      "type": "function"
    },
    {
      "inputs": [
        {
          "internalType": "uint256",
          "name": "",
          "type": "uint256"
        }
      ],
      "name": "zombies",
      "outputs": [
        {
          "internalType": "string",
          "name": "name",
          "type": "string"
        },
        {
          "internalType": "uint256",
          "name": "dna",
          "type": "uint256"
        },
        {
          "internalType": "uint32",
          "name": "level",
          "type": "uint32"
        },
        {
          "internalType": "uint32",
          "name": "readyTime",
          "type": "uint32"
        },
        {
          "internalType": "uint16",
          "name": "winCount",
          "type": "uint16"
        },
        {
          "internalType": "uint16",
          "name": "lossCount",
          "type": "uint16"
        }
      ],
      "stateMutability": "view",
      "type": "function"
    },
    {
      "inputs": [
        {
          "internalType": "uint256",
          "name": "_zombieId",
          "type": "uint256"
        },
        {
          "internalType": "uint256",
          "name": "_targetId",
          "type": "uint256"
        }
      ],
      "name": "attack",
      "outputs": [],
      "stateMutability": "nonpayable",
      "type": "function"
    }
  ],
  "bytecode": "0x60806040526010600155600154600a6200001a919062000318565b6002556201518060035566038d7ea4c680006008555f6009556046600a5534801562000044575f80fd5b50335f73ffffffffffffffffffffffffffffffffffffffff168173ffffffffffffffffffffffffffffffffffffffff1603620000b9575f6040517f1e4fbdf7000000000000000000000000000000000000000000000000000000008152600401620000b09190620003ab565b60405180910390fd5b620000ca81620000d160201b60201c565b50620003c6565b5f805f9054906101000a900473ffffffffffffffffffffffffffffffffffffffff169050815f806101000a81548173ffffffffffffffffffffffffffffffffffffffff021916908373ffffffffffffffffffffffffffffffffffffffff1602179055508173ffffffffffffffffffffffffffffffffffffffff168173ffffffffffffffffffffffffffffffffffffffff167f8be0079c531659141344cd1fd0a4f28419497f9722a3daafe3b4186f6b6457e060405160405180910390a35050565b7f4e487b71000000000000000000000000000000000000000000000000000000005f52601160045260245ffd5b5f8160011c9050919050565b5f808291508390505b60018511156200021c57808604811115620001f457620001f362000192565b5b6001851615620002045780820291505b80810290506200021485620001bf565b9450620001d4565b94509492505050565b5f8262000236576001905062000308565b8162000245575f905062000308565b81600181146200025e576002811462000269576200029f565b600191505062000308565b60ff8411156200027e576200027d62000192565b5b8360020a91508482111562000298576200029762000192565b5b5062000308565b5060208310610133831016604e8410600b8410161715620002d95782820a905083811115620002d357620002d262000192565b5b62000308565b620002e88484846001620001cb565b9250905081840481111562000302576200030162000192565b5b81810290505b9392505050565b5f819050919050565b5f62000324826200030f565b915062000331836200030f565b9250620003607fffffffffffffffffffffffffffffffffffffffffffffffffffffffffffffffff848462000225565b905092915050565b5f73ffffffffffffffffffffffffffffffffffffffff82169050919050565b5f620003938262000368565b9050919050565b620003a58162000387565b82525050565b5f602082019050620003c05f8301846200039a565b92915050565b6120a780620003d45f395ff3fe6080604052600436106100e7575f3560e01c80635faf288011610089578063c39cbef111610058578063c39cbef1146102b6578063ccf670f8146102de578063e1fa763814610306578063f2fde38b1461032e576100e7565b80635faf288014610226578063715018a61461024e5780637bff0a01146102645780638da5cb5b1461028c576100e7565b80633ccfd60b116100c55780633ccfd60b146101705780634412e10414610186578063528b7b8f146101c25780635f4623f1146101fe576100e7565b80630ce90ec2146100eb57806317a7f4cc146101075780632052465e1461012f575b5f80fd5b610105600480360381019061010091906113db565b610356565b005b348015610112575f80fd5b5061012d60048036038101906101289190611406565b6103c7565b005b34801561013a575f80fd5b50610155600480360381019061015091906113db565b6104e1565b60405161016796959493929190611517565b60405180910390f35b34801561017b575f80fd5b506101846105e9565b005b348015610191575f80fd5b506101ac60048036038101906101a791906115d7565b61065a565b6040516101b991906116b9565b60405180910390f35b3480156101cd575f80fd5b506101e860048036038101906101e391906113db565b6107a5565b6040516101f591906116e8565b60405180910390f35b348015610209575f80fd5b50610224600480360381019061021f91906115d7565b6107d5565b005b348015610231575f80fd5b5061024c60048036038101906102479190611406565b610820565b005b348015610259575f80fd5b506102626108fe565b005b34801561026f575f80fd5b5061028a6004803603810190610285919061182d565b610911565b005b348015610297575f80fd5b506102a06109aa565b6040516102ad91906116e8565b60405180910390f35b3480156102c1575f80fd5b506102dc60048036038101906102d79190611874565b6109d1565b005b3480156102e9575f80fd5b5061030460048036038101906102ff91906113db565b610ab7565b005b348015610311575f80fd5b5061032c60048036038101906103279190611406565b610ac9565b005b348015610339575f80fd5b50610354600480360381019061034f91906115d7565b610d1e565b005b6008543414610363575f80fd5b60048181548110610377576103766118ce565b5b905f5260205f2090600302016002015f81819054906101000a900463ffffffff16809291906103a590611928565b91906101000a81548163ffffffff021916908363ffffffff1602179055505050565b5f60075f9054906101000a900473ffffffffffffffffffffffffffffffffffffffff1673ffffffffffffffffffffffffffffffffffffffff1663e98b7f4d836040518263ffffffff1660e01b81526004016104229190611953565b61014060405180830381865afa15801561043e573d5f803e3d5ffd5b505050506040513d601f19601f8201168201806040525081019061046291906119b5565b909192939495969798509091929394959697509091929394959650909192939495509091929394509091929350909192509091509050809150506104dc83826040518060400160405280600581526020017f6b69747479000000000000000000000000000000000000000000000000000000815250610da2565b505050565b600481815481106104f0575f80fd5b905f5260205f2090600302015f91509050805f01805461050f90611abb565b80601f016020809104026020016040519081016040528092919081815260200182805461053b90611abb565b80156105865780601f1061055d57610100808354040283529160200191610586565b820191905f5260205f20905b81548152906001019060200180831161056957829003601f168201915b505050505090806001015490806002015f9054906101000a900463ffffffff16908060020160049054906101000a900463ffffffff16908060020160089054906101000a900461ffff169080600201600a9054906101000a900461ffff16905086565b6105f1610f35565b5f6105fa6109aa565b90508073ffffffffffffffffffffffffffffffffffffffff166108fc8273ffffffffffffffffffffffffffffffffffffffff163190811502906040515f60405180830381858888f19350505050158015610656573d5f803e3d5ffd5b5050565b60605f60065f8473ffffffffffffffffffffffffffffffffffffffff1673ffffffffffffffffffffffffffffffffffffffff1681526020019081526020015f205467ffffffffffffffff8111156106b4576106b3611709565b5b6040519080825280602002602001820160405280156106e25781602001602082028036833780820191505090505b5090505f805b60048054905081101561079a578473ffffffffffffffffffffffffffffffffffffffff1660055f8381526020019081526020015f205f9054906101000a900473ffffffffffffffffffffffffffffffffffffffff1673ffffffffffffffffffffffffffffffffffffffff1603610787578083838151811061076c5761076b6118ce565b5b602002602001018181525050818061078390611aeb565b9250505b808061079290611aeb565b9150506106e8565b508192505050919050565b6005602052805f5260405f205f915054906101000a900473ffffffffffffffffffffffffffffffffffffffff1681565b6107dd610f35565b8060075f6101000a81548173ffffffffffffffffffffffffffffffffffffffff021916908373ffffffffffffffffffffffffffffffffffffffff16021790555050565b6014828160048281548110610838576108376118ce565b5b905f5260205f2090600302016002015f9054906101000a900463ffffffff1663ffffffff161015610867575f80fd5b8360055f8281526020019081526020015f205f9054906101000a900473ffffffffffffffffffffffffffffffffffffffff1673ffffffffffffffffffffffffffffffffffffffff163373ffffffffffffffffffffffffffffffffffffffff16146108cf575f80fd5b83600486815481106108e4576108e36118ce565b5b905f5260205f209060030201600101819055505050505050565b610906610f35565b61090f5f610fbc565b565b5f60065f3373ffffffffffffffffffffffffffffffffffffffff1673ffffffffffffffffffffffffffffffffffffffff1681526020019081526020015f205414610990576040517f08c379a000000000000000000000000000000000000000000000000000000000815260040161098790611ba2565b60405180910390fd5b5f61099a8261107d565b90506109a682826110c0565b5050565b5f805f9054906101000a900473ffffffffffffffffffffffffffffffffffffffff16905090565b60028281600482815481106109e9576109e86118ce565b5b905f5260205f2090600302016002015f9054906101000a900463ffffffff1663ffffffff161015610a18575f80fd5b8360055f8281526020019081526020015f205f9054906101000a900473ffffffffffffffffffffffffffffffffffffffff1673ffffffffffffffffffffffffffffffffffffffff163373ffffffffffffffffffffffffffffffffffffffff1614610a80575f80fd5b8360048681548110610a9557610a946118ce565b5b905f5260205f2090600302015f019081610aaf9190611d5d565b505050505050565b610abf610f35565b8060088190555050565b8160055f8281526020019081526020015f205f9054906101000a900473ffffffffffffffffffffffffffffffffffffffff1673ffffffffffffffffffffffffffffffffffffffff163373ffffffffffffffffffffffffffffffffffffffff1614610b31575f80fd5b5f60048481548110610b4657610b456118ce565b5b905f5260205f20906003020190505f60048481548110610b6957610b686118ce565b5b905f5260205f20906003020190505f610b8260646112de565b9050600a548111610c925782600201600881819054906101000a900461ffff1680929190610baf90611e2c565b91906101000a81548161ffff021916908361ffff16021790555050826002015f81819054906101000a900463ffffffff1680929190610bed90611928565b91906101000a81548163ffffffff021916908363ffffffff1602179055505081600201600a81819054906101000a900461ffff1680929190610c2e90611e2c565b91906101000a81548161ffff021916908361ffff16021790555050610c8d8683600101546040518060400160405280600681526020017f7a6f6d6269650000000000000000000000000000000000000000000000000000815250610da2565b610d16565b82600201600a81819054906101000a900461ffff1680929190610cb490611e2c565b91906101000a81548161ffff021916908361ffff1602179055505081600201600881819054906101000a900461ffff1680929190610cf190611e2c565b91906101000a81548161ffff021916908361ffff16021790555050610d1583611337565b5b505050505050565b610d26610f35565b5f73ffffffffffffffffffffffffffffffffffffffff168173ffffffffffffffffffffffffffffffffffffffff1603610d96575f6040517f1e4fbdf7000000000000000000000000000000000000000000000000000000008152600401610d8d91906116e8565b60405180910390fd5b610d9f81610fbc565b50565b8260055f8281526020019081526020015f205f9054906101000a900473ffffffffffffffffffffffffffffffffffffffff1673ffffffffffffffffffffffffffffffffffffffff163373ffffffffffffffffffffffffffffffffffffffff1614610e0a575f80fd5b5f60048581548110610e1f57610e1e6118ce565b5b905f5260205f2090600302019050610e368161136a565b610e3e575f80fd5b60025484610e4c9190611e82565b93505f6002858360010154610e619190611eb2565b610e6b9190611ee5565b9050604051602001610e7c90611f5f565b6040516020818303038152906040528051906020012084604051602001610ea39190611f7d565b6040516020818303038152906040528051906020012003610ee5576063606482610ecd9190611e82565b82610ed89190611f9d565b610ee29190611eb2565b90505b610f246040518060400160405280600681526020017f4e6f4e616d650000000000000000000000000000000000000000000000000000815250826110c0565b610f2d82611337565b505050505050565b610f3d611390565b73ffffffffffffffffffffffffffffffffffffffff16610f5b6109aa565b73ffffffffffffffffffffffffffffffffffffffff1614610fba57610f7e611390565b6040517f118cdaa7000000000000000000000000000000000000000000000000000000008152600401610fb191906116e8565b60405180910390fd5b565b5f805f9054906101000a900473ffffffffffffffffffffffffffffffffffffffff169050815f806101000a81548173ffffffffffffffffffffffffffffffffffffffff021916908373ffffffffffffffffffffffffffffffffffffffff1602179055508173ffffffffffffffffffffffffffffffffffffffff168173ffffffffffffffffffffffffffffffffffffffff167f8be0079c531659141344cd1fd0a4f28419497f9722a3daafe3b4186f6b6457e060405160405180910390a35050565b5f80826040516020016110909190611f7d565b604051602081830303815290604052805190602001205f1c9050600254816110b89190611e82565b915050919050565b60046040518060c00160405280848152602001838152602001600163ffffffff168152602001600354426110f49190611eb2565b63ffffffff1681526020015f61ffff1681526020015f61ffff16815250908060018154018082558091505060019003905f5260205f2090600302015f909190919091505f820151815f01908161114a9190611d5d565b50602082015181600101556040820151816002015f6101000a81548163ffffffff021916908363ffffffff16021790555060608201518160020160046101000a81548163ffffffff021916908363ffffffff16021790555060808201518160020160086101000a81548161ffff021916908361ffff16021790555060a082015181600201600a6101000a81548161ffff021916908361ffff16021790555050505f60016004805490506111fd9190611f9d565b90503360055f8381526020019081526020015f205f6101000a81548173ffffffffffffffffffffffffffffffffffffffff021916908373ffffffffffffffffffffffffffffffffffffffff16021790555060065f3373ffffffffffffffffffffffffffffffffffffffff1673ffffffffffffffffffffffffffffffffffffffff1681526020019081526020015f205f81548092919061129b90611aeb565b919050555081817f88f026aacbbecc90c18411df4b1185fd8d9be2470f1962f192bf84a27d0704b7856040516112d19190611f7d565b60405180910390a3505050565b5f60095f8154809291906112f190611aeb565b919050555081423360095460405160200161130e93929190612035565b604051602081830303815290604052805190602001205f1c6113309190611e82565b9050919050565b600354426113459190611eb2565b8160020160046101000a81548163ffffffff021916908363ffffffff16021790555050565b5f428260020160049054906101000a900463ffffffff1663ffffffff1611159050919050565b5f33905090565b5f604051905090565b5f80fd5b5f80fd5b5f819050919050565b6113ba816113a8565b81146113c4575f80fd5b50565b5f813590506113d5816113b1565b92915050565b5f602082840312156113f0576113ef6113a0565b5b5f6113fd848285016113c7565b91505092915050565b5f806040838503121561141c5761141b6113a0565b5b5f611429858286016113c7565b925050602061143a858286016113c7565b9150509250929050565b5f81519050919050565b5f82825260208201905092915050565b5f5b8381101561147b578082015181840152602081019050611460565b5f8484015250505050565b5f601f19601f8301169050919050565b5f6114a082611444565b6114aa818561144e565b93506114ba81856020860161145e565b6114c381611486565b840191505092915050565b6114d7816113a8565b82525050565b5f63ffffffff82169050919050565b6114f5816114dd565b82525050565b5f61ffff82169050919050565b611511816114fb565b82525050565b5f60c0820190508181035f83015261152f8189611496565b905061153e60208301886114ce565b61154b60408301876114ec565b61155860608301866114ec565b6115656080830185611508565b61157260a0830184611508565b979650505050505050565b5f73ffffffffffffffffffffffffffffffffffffffff82169050919050565b5f6115a68261157d565b9050919050565b6115b68161159c565b81146115c0575f80fd5b50565b5f813590506115d1816115ad565b92915050565b5f602082840312156115ec576115eb6113a0565b5b5f6115f9848285016115c3565b91505092915050565b5f81519050919050565b5f82825260208201905092915050565b5f819050602082019050919050565b611634816113a8565b82525050565b5f611645838361162b565b60208301905092915050565b5f602082019050919050565b5f61166782611602565b611671818561160c565b935061167c8361161c565b805f5b838110156116ac578151611693888261163a565b975061169e83611651565b92505060018101905061167f565b5085935050505092915050565b5f6020820190508181035f8301526116d1818461165d565b905092915050565b6116e28161159c565b82525050565b5f6020820190506116fb5f8301846116d9565b92915050565b5f80fd5b5f80fd5b7f4e487b71000000000000000000000000000000000000000000000000000000005f52604160045260245ffd5b61173f82611486565b810181811067ffffffffffffffff8211171561175e5761175d611709565b5b80604052505050565b5f611770611397565b905061177c8282611736565b919050565b5f67ffffffffffffffff82111561179b5761179a611709565b5b6117a482611486565b9050602081019050919050565b828183375f83830152505050565b5f6117d16117cc84611781565b611767565b9050828152602081018484840111156117ed576117ec611705565b5b6117f88482856117b1565b509392505050565b5f82601f83011261181457611813611701565b5b81356118248482602086016117bf565b91505092915050565b5f60208284031215611842576118416113a0565b5b5f82013567ffffffffffffffff81111561185f5761185e6113a4565b5b61186b84828501611800565b91505092915050565b5f806040838503121561188a576118896113a0565b5b5f611897858286016113c7565b925050602083013567ffffffffffffffff8111156118b8576118b76113a4565b5b6118c485828601611800565b9150509250929050565b7f4e487b71000000000000000000000000000000000000000000000000000000005f52603260045260245ffd5b7f4e487b71000000000000000000000000000000000000000000000000000000005f52601160045260245ffd5b5f611932826114dd565b915063ffffffff8203611948576119476118fb565b5b600182019050919050565b5f6020820190506119665f8301846114ce565b92915050565b5f8115159050919050565b6119808161196c565b811461198a575f80fd5b50565b5f8151905061199b81611977565b92915050565b5f815190506119af816113b1565b92915050565b5f805f805f805f805f806101408b8d0312156119d4576119d36113a0565b5b5f6119e18d828e0161198d565b9a505060206119f28d828e0161198d565b9950506040611a038d828e016119a1565b9850506060611a148d828e016119a1565b9750506080611a258d828e016119a1565b96505060a0611a368d828e016119a1565b95505060c0611a478d828e016119a1565b94505060e0611a588d828e016119a1565b935050610100611a6a8d828e016119a1565b925050610120611a7c8d828e016119a1565b9150509295989b9194979a5092959850565b7f4e487b71000000000000000000000000000000000000000000000000000000005f52602260045260245ffd5b5f6002820490506001821680611ad257607f821691505b602082108103611ae557611ae4611a8e565b5b50919050565b5f611af5826113a8565b91507fffffffffffffffffffffffffffffffffffffffffffffffffffffffffffffffff8203611b2757611b266118fb565b5b600182019050919050565b7f4f6e6c792031207a6f6d6269652063616e2062652063726561746564207065725f8201527f206f776e657220746f20696e697469616c697a65207468652067616d65000000602082015250565b5f611b8c603d8361144e565b9150611b9782611b32565b604082019050919050565b5f6020820190508181035f830152611bb981611b80565b9050919050565b5f819050815f5260205f209050919050565b5f6020601f8301049050919050565b5f82821b905092915050565b5f60088302611c1c7fffffffffffffffffffffffffffffffffffffffffffffffffffffffffffffffff82611be1565b611c268683611be1565b95508019841693508086168417925050509392505050565b5f819050919050565b5f611c61611c5c611c57846113a8565b611c3e565b6113a8565b9050919050565b5f819050919050565b611c7a83611c47565b611c8e611c8682611c68565b848454611bed565b825550505050565b5f90565b611ca2611c96565b611cad818484611c71565b505050565b5b81811015611cd057611cc55f82611c9a565b600181019050611cb3565b5050565b601f821115611d1557611ce681611bc0565b611cef84611bd2565b81016020851015611cfe578190505b611d12611d0a85611bd2565b830182611cb2565b50505b505050565b5f82821c905092915050565b5f611d355f1984600802611d1a565b1980831691505092915050565b5f611d4d8383611d26565b9150826002028217905092915050565b611d6682611444565b67ffffffffffffffff811115611d7f57611d7e611709565b5b611d898254611abb565b611d94828285611cd4565b5f60209050601f831160018114611dc5575f8415611db3578287015190505b611dbd8582611d42565b865550611e24565b601f198416611dd386611bc0565b5f5b82811015611dfa57848901518255600182019150602085019450602081019050611dd5565b86831015611e175784890151611e13601f891682611d26565b8355505b6001600288020188555050505b505050505050565b5f611e36826114fb565b915061ffff8203611e4a57611e496118fb565b5b600182019050919050565b7f4e487b71000000000000000000000000000000000000000000000000000000005f52601260045260245ffd5b5f611e8c826113a8565b9150611e97836113a8565b925082611ea757611ea6611e55565b5b828206905092915050565b5f611ebc826113a8565b9150611ec7836113a8565b9250828201905080821115611edf57611ede6118fb565b5b92915050565b5f611eef826113a8565b9150611efa836113a8565b925082611f0a57611f09611e55565b5b828204905092915050565b7f6b697474790000000000000000000000000000000000000000000000000000005f82015250565b5f611f4960058361144e565b9150611f5482611f15565b602082019050919050565b5f6020820190508181035f830152611f7681611f3d565b9050919050565b5f6020820190508181035f830152611f958184611496565b905092915050565b5f611fa7826113a8565b9150611fb2836113a8565b9250828203905081811115611fca57611fc96118fb565b5b92915050565b5f819050919050565b611fea611fe5826113a8565b611fd0565b82525050565b5f8160601b9050919050565b5f61200682611ff0565b9050919050565b5f61201782611ffc565b9050919050565b61202f61202a8261159c565b61200d565b82525050565b5f6120408286611fd9565b602082019150612050828561201e565b6014820191506120608284611fd9565b60208201915081905094935050505056fea2646970667358221220a04b973d1573a59f12ceded3a2a2c1ed399beb1e5de0f6c93c2ccde832f5885b64736f6c63430008150033",
  "immutableReferences": {},
  "source": "// SPDX-License-Identifier: MIT\npragma solidity >=0.4.22 <0.9.0;\n\nimport \"./ZombieHelper.sol\";\ncontract ZombieBattle is ZombieHelper {\n  uint randNonce = 0;\n  uint attackVictoryProbability = 70;\n\n  function randMod(uint _modulus) internal returns(uint) {\n    randNonce++;\n    return uint(keccak256(abi.encodePacked(block.timestamp, msg.sender, randNonce))) % _modulus;\n  }\n\n  function attack(uint _zombieId, uint _targetId) external onlyOwnerOf(_zombieId) {\n    Zombie storage myZombie = zombies[_zombieId];\n    Zombie storage enemyZombie = zombies[_targetId];\n\n    uint rand = randMod(100);\n    if (rand <= attackVictoryProbability) {\n      myZombie.winCount++;\n      myZombie.level++;\n      enemyZombie.lossCount++;\n      feedAndMultiply(_zombieId, enemyZombie.dna, \"zombie\");\n    }\n    else {\n      myZombie.lossCount++;\n      enemyZombie.winCount++;\n      _triggerCooldown(myZombie);\n    }\n  }  \n}\n",
  "sourcePath": "E:\\Freelancer\\dapp-template\\contracts\\contracts\\ZombieBattle.sol",
  "compiler": {
    "name": "solc",
    "version": "0.8.21+commit.d9974bed.Emscripten.clang"
  },
  "schemaVersion": "3.4.16",
  "updatedAt": "2024-08-16T08:15:30.769Z",
  "devdoc": {
    "errors": {
      "OwnableInvalidOwner(address)": [
        {
          "details": "The owner is not a valid owner account. (eg. `address(0)`)"
        }
      ],
      "OwnableUnauthorizedAccount(address)": [
        {
          "details": "The caller account is not authorized to perform an operation."
        }
      ]
    },
    "kind": "dev",
    "methods": {
      "owner()": {
        "details": "Returns the address of the current owner."
      },
      "renounceOwnership()": {
        "details": "Leaves the contract without owner. It will not be possible to call `onlyOwner` functions. Can only be called by the current owner. NOTE: Renouncing ownership will leave the contract without an owner, thereby disabling any functionality that is only available to the owner."
      },
      "transferOwnership(address)": {
        "details": "Transfers ownership of the contract to a new account (`newOwner`). Can only be called by the current owner."
      }
    },
    "version": 1
  },
  "userdoc": {
    "kind": "user",
    "methods": {},
    "version": 1
  }
}